:020000040800F2
:1000000000001024195C0008554300085D430008F7
:10001000654300086D4300087543000800000000B8
:100020000000000000000000000000003530000863
:100030007D43000800000000F12F0008212F000878
:10004000695C0008695C0008695C0008695C00087C
:10005000695C0008695C0008695C0008695C00086C
:10006000695C0008695C0008695C00085D0F0008B5
:10007000695C0008695C0008695C0008695C00084C
:10008000695C0008695C0008BF0F0008695C000833
:10009000695C0008695C0008695C0008695C00082C
:1000A000695C00088D430008695C0008695C000811
:1000B000695C0008695C0008695C0008695C00080C
:1000C000695C0008695C0008695C0008695C0008FC
:1000D000695C0008695C0008695C0008695C0008EC
:1000E000695C0008695C0008695C0008695C0008DC
:1000F000695C0008695C0008695C0008695C0008CC
:10010000695C0008695C0008695C0008695C0008BB
:10011000695C0008695C0008695C0008695C0008AB
:10012000695C0008695C0008695C0008695C00089B
:10013000695C00080000000000000000695C000825
:10014000695C0008695C0008695C0008695C00087B
:10015000695C0008695C0008695C0008695C00086B
:10016000695C0008695C0008695C0008695C00085B
:10017000695C0008695C0008695C00080000000018
:10018000695C0008695C0008695C0008695C00083B
:10019000695C0008695C0008695C0008695C00082B
:1001A000695C0008695C0008695C0008695C00081B
:1001B000695C0008695C0008695C0008695C00080B
:1001C000695C0008695C0008000000000000000095
:1001D0000000000000000000695C00080000000052
:1001E000000000000000000000000000000000000F
:1001F0000000000000000000695C0008695C000865
:10020000695C0008695C000800000000695C000887
:10021000695C0008695C0008695C0008695C0008AA
:10022000695C0008695C0008695C00080000000067
:10023000695C0008695C000800000000695C000857
:10024000695C0008695C0008695C0008695C00087A
:10025000695C0008695C0008695C0008695C00086A
:10026000695C0008695C0008695C0008695C00085A
:10027000695C0008695C0008695C00080000000017
:10028000695C0008695C000800000000695C000807
:1002900000000000695C0008695C000800000000C4
:0C02A00000000000695C0008695C0008B8
:1002B000844641EA000313F003036DD1403A41D371
:1002C00051F8043B40F8043B51F8043B40F8043B30
:1002D00051F8043B40F8043B51F8043B40F8043B20
:1002E00051F8043B40F8043B51F8043B40F8043B10
:1002F00051F8043B40F8043B51F8043B40F8043B00
:1003000051F8043B40F8043B51F8043B40F8043BEF
:1003100051F8043B40F8043B51F8043B40F8043BDF
:1003200051F8043B40F8043B51F8043B40F8043BCF
:1003300051F8043B40F8043B51F8043B40F8043BBF
:10034000403ABDD2303211D351F8043B40F8043B5F
:1003500051F8043B40F8043B51F8043B40F8043B9F
:1003600051F8043B40F8043B103AEDD20C3205D36F
:1003700051F8043B40F8043B043AF9D2043208D067
:10038000D2071CBF11F8013B00F8013B01D30B88D9
:1003900003806046704700BF082A13D38B078DD0B7
:1003A00010F003038AD0C3F10403D21ADB071CBF89
:1003B00011F8013B00F8013B80D331F8023B20F8F3
:1003C000023B7BE7043AD9D3013A11F8013B00F82C
:1003D000013BF9D20B7803704B7843708B788370B4
:1003E000604670470348044B834202D0034B03B17D
:1003F0001847704714000024140000240000000077
:100400000548064B1B1AD90F01EBA301491002D076
:10041000034B03B118477047140000241400002454
:100420000000000010B5064C237843B9FFF7DAFF4F
:10043000044B13B10448AFF300800123237010BDB7
:1004400018000024000000007C5E000808B5054B81
:100450001BB105490548AFF30080BDE80840FFF730
:10046000CFBF00BF000000001C0000247C5E00081D
:1004700080B485B000AF786039603B68002B03D151
:100480007B684033FB6001E0044BFB60FB6818466F
:100490001437BD465DF8047B704700BF0C23024053
:1004A00080B487B000AF786039603B68C3F3130352
:1004B000002B07D13B689B0E03F01F03012202FAB9
:1004C00003F315E03B683B613B6993FAA3F3FB60E0
:1004D000FB687B617B69002B01D1202303E07B69F2
:1004E000B3FA83F3DBB203F01F03012202FA03F332
:1004F0007A68D2691A437B68DA6100BF1C37BD464F
:100500005DF8047B704780B483B000AF78607B688F
:10051000DB6803F44063002B01D1012300E00023DA
:1005200018460C37BD465DF8047B704780B483B035
:1005300000AF786039607B681B6B23F00F023B686B
:100540001A437B681A6300BF0C37BD465DF8047B15
:10055000704780B485B000AF786039607B68303315
:100560001A463B681B0A9B0003F00C031344FB6014
:10057000FB681A683B6803F01F031F2101FA03F3AD
:100580001A403B6803F01F0322FA03F39B06184648
:100590001437BD465DF8047B704780B483B000AF6C
:1005A000786039607B68DB6823F003023B681A439C
:1005B0007B68DA6000BF0C37BD465DF8047B70478E
:1005C00080B483B000AF78607B68DB6C03F4C073E9
:1005D000002B01D1012300E0002318460C37BD4653
:1005E0005DF8047B704780B483B000AF78603960F9
:1005F0007B68DA6C3B6803F01F031F2101FA03F3E9
:100600001A403B6803F01F0322FA03F39B061846C7
:100610000C37BD465DF8047B7047000080B483B0A2
:1006200000AF78607B689A68054B134043F0010285
:100630007B689A6000BF0C37BD465DF8047B70474D
:10064000C0FFFF7F80B483B000AF78607B689A689A
:10065000054B134043F002027B689A6000BF0C37E1
:10066000BD465DF8047B7047C0FFFF7F80B483B058
:1006700000AF78607B689B6803F00103012B01D118
:10068000012300E0002318460C37BD465DF8047BCB
:100690007047000080B485B000AFF860B9607A6040
:1006A000FB689A68094B1340BA6802F480317A6893
:1006B00002F080420A43134343F00042FB689A6011
:1006C00000BF1437BD465DF8047B7047C0FFFE3F96
:1006D00080B483B000AF78607B689B6803F0004310
:1006E000B3F1004F01D1012300E0002318460C377D
:1006F000BD465DF8047B704780B483B000AF78607E
:100700007B689A68054B134043F004027B689A604B
:1007100000BF0C37BD465DF8047B7047C0FFFF7F0C
:1007200080B483B000AF78607B689A68054B134053
:1007300043F008027B689A6000BF0C37BD465DF845
:10074000047B7047C0FFFF7F80B483B000AF786048
:100750007B681B6803F00803082B01D1012300E02C
:10076000002318460C37BD465DF8047B704780B403
:1007700083B000AF78607B681B6803F01003102B18
:1007800001D1012300E0002318460C37BD465DF877
:10079000047B704780B483B000AF78607B68102220
:1007A0001A6000BF0C37BD465DF8047B704780B40B
:1007B00083B000AF78607B685B6843F008027B68B9
:1007C0005A6000BF0C37BD465DF8047B704780B4AB
:1007D00083B000AF78607B685B6843F040027B6861
:1007E0005A6000BF0C37BD465DF8047B704780B48B
:1007F00083B000AF78607B685B6823F008027B6899
:100800005A6000BF0C37BD465DF8047B704780B46A
:1008100083B000AF78607B685B6823F010027B6870
:100820005A6000BF0C37BD465DF8047B704780B44A
:1008300083B000AF78607B685B6823F040027B6820
:100840005A6000BF0C37BD465DF8047B704780B42A
:1008500083B000AF78607B685B6823F080027B68C0
:100860005A6000BF0C37BD465DF8047B704780B40A
:1008700083B000AF78607B685B6803F01003102BD7
:1008800001D1012300E0002318460C37BD465DF876
:10089000047B704780B483B000AF78607B685B688E
:1008A00003F08003802B01D1012300E000231846D0
:1008B0000C37BD465DF8047B7047000080B485B0FE
:1008C00000AF786039607B68FB600C4A3B6813447A
:1008D0001B781A46FB6813441B6808493A680A44A7
:1008E00012781146FA680A4443F00103136000BF0E
:1008F0001437BD465DF8047B704700BF945E000866
:1009000080B485B000AF786039607B68FB600C4ACA
:100910003B6813441B781A46FB6813441B6808495C
:100920003A680A4412781146FA680A4423F001032F
:10093000136000BF1437BD465DF8047B704700BFED
:10094000945E000880B485B000AF786039607B6841
:10095000FB60084A3B6813441B781A46FB68134443
:100960001B6803F4907318461437BD465DF8047B8A
:10097000704700BF945E000880B487B000AFF86095
:10098000B9607A60FB687B610D4ABB6813441B78D1
:100990001A467B6913441B6823F4C0520849BB689C
:1009A0000B441B7819467B690B4419467B6813433B
:1009B0000B6000BF1C37BD465DF8047B704700BF6D
:1009C000945E000880B487B000AFF860B9607A60C8
:1009D000FB687B610D4ABB6813441B781A467B6930
:1009E00013441B6823F4C0420849BB680B441B78BE
:1009F00019467B690B4419467B6813430B6000BFA3
:100A00001C37BD465DF8047B704700BF945E00084C
:100A100080B487B000AFF860B9607A60FB687B6132
:100A20000D4ABB6813441B781A467B6913445A6805
:100A30000A4B13400849BA680A44127811467A6989
:100A40000A4411467A6813434B6000BF1C37BD4609
:100A50005DF8047B704700BF945E00080000FFFF54
:100A600080B485B000AF786039607B68FB60084A6D
:100A70003B6813441B781A46FB6813441B6803F455
:100A8000002318461437BD465DF8047B704700BF4D
:100A9000945E000880B485B000AF786039607B68F0
:100AA000FB600C4A3B6813441B781A46FB681344EE
:100AB0001B6808493A680A4412781146FA680A44E1
:100AC00043F48023136000BF1437BD465DF8047BF8
:100AD000704700BF945E000880B487B000AFF86034
:100AE000B9607A60FB687B61074ABB6813441B7876
:100AF0001A467B6913441A467B68D36000BF1C37D3
:100B0000BD465DF8047B7047945E000880B487B0F2
:100B100000AFF860B9607A60FB687B61074ABB6828
:100B200013441B781A467B6913441A467B6893600A
:100B300000BF1C37BD465DF8047B7047945E00081B
:100B400080B487B000AFF860B9607A60FB687B6101
:100B50000B4ABB6813441B781A467B6913441B6914
:100B6000074ABB6813441B781A467B6913441A462C
:100B70007B68136100BF1C37BD465DF8047B70477E
:100B8000945E000880B483B000AF78607B681B6817
:100B900003F02003202B01D1012300E0002318469D
:100BA0000C37BD465DF8047B704780B483B000AF5E
:100BB00078607B6820229A6000BF0C37BD465DF8E4
:100BC000047B704780B485B000AF786039607B6883
:100BD000FB600C4A3B6813441B781A46FB681344BD
:100BE0001B6808493A680A4412781146FA680A44B0
:100BF00043F00403136000BF1437BD465DF8047B67
:100C0000704700BF945E000880B485B000AF786084
:100C100039607B68FB600C4A3B6813441B781A46BA
:100C2000FB6813441B6808493A680A441278114665
:100C3000FA680A4443F01003136000BF1437BD463E
:100C40005DF8047B704700BF945E000880B485B0F7
:100C500000AF786039607B68FB600C4A3B681344E6
:100C60001B781A46FB6813441B6808493A680A4413
:100C700012781146FA680A4423F00403136000BF97
:100C80001437BD465DF8047B704700BF945E0008D2
:100C900080B485B000AF786039607B68FB600C4A37
:100CA0003B6813441B781A46FB6813441B680849C9
:100CB0003A680A4412781146FA680A4423F010038D
:100CC000136000BF1437BD465DF8047B704700BF5A
:100CD000945E000880B485B000AF786039607B68AE
:100CE000FB600A4A3B6813441B781A46FB681344AE
:100CF0001B6803F01003102B01D1012300E0002337
:100D000018461437BD465DF8047B7047945E0008B2
:100D100080B584B000AF78600123FB817B681B69DC
:100D20001846FFF7F0FB0346002B2FD07B685B7A59
:100D3000DBB2022B11D07B685B7ADBB2042B0CD0C8
:100D40007B685B7ADBB2082B07D07B681B6918468F
:100D5000FFF7FAFC0346012B18D1786800F00EF972
:100D60000346002B12D17B685B7ADBB2082B03D1E0
:100D70007B6801225A7202E07B6820225A727B68EB
:100D80001B691846FFF7B8FC0023FB81FB89184656
:100D90001037BD4680BD80B584B000AFF860B96043
:100DA0007A603B600021F868FFF762FB03461A4651
:100DB0007968B868FFF7AAFE4FF480527968B8687E
:100DC000FFF7DAFD4FF480527968B868FFF7FAFD53
:100DD0003B681A467968B868FFF77EFEBB699B00DE
:100DE0003A6813441A467968B868FFF7A9FE79682B
:100DF000B868FFF74FFEBA697968B868FFF708FE70
:100E00007968B868FFF700FF7968B868FFF7DAFE1D
:100E10007968B868FFF752FD00BF1037BD4680BD46
:100E200080B584B000AFF860B9607A607968B8685E
:100E3000FFF766FD7968B868FFF708FF7968B8685A
:100E4000FFF726FF00227968B868FFF7E1FD00BFD1
:100E50001037BD4680BD80B584B000AF7860396082
:100E60000423FB737B685A697B689B79194610469B
:100E7000FFF7F6FD0346002B0FD17B68DA687B682D
:100E80001B689B00D118FB7B7A68126802FB03F396
:100E90001A463868FFF70CFA0AE07B68D968FB7BD2
:100EA0007A68126802FB03F31A463868FFF700FA03
:100EB00000BF1037BD4680BD80B586B000AFF8607A
:100EC000B9607A60FB685A69FB689B7919461046DD
:100ED000FFF700FF0346DBB2012B37D1FB685A69ED
:100EE000BB68104698470346012B2FD1FB680422AC
:100EF0005A72FB685A697B6810469847FB685A69C2
:100F0000FB689B7919461046FFF71CFD0346002B32
:100F100019D1FB685A69FB689B7919461046FFF79F
:100F2000EFFCFB685869FB689B791946FB681B68F6
:100F30001A46FFF76DFDFB685A69FB689B791946F5
:100F40001046FFF7BBFC0123FB7501E00023FB7596
:100F5000FB7D18461837BD4680BD000080B500AF48
:100F6000034A04490448FFF7A7FF00BF80BD00BF44
:100F7000AB0B0008850B00083400002480B582B05C
:100F800000AF78607B681B691846FFF7F0FB0346EB
:100F9000DBB2012B07D17B681B691846FFF7FAFB10
:100FA0007B6810225A727B685B7ADBB2102B0CBF15
:100FB00001230023DBB218460837BD4680BD80B44C
:100FC00000AF00BFBD465DF8047B704780B582B0BE
:100FD00000AF78600B46FB701346BB70FB78002BAC
:100FE00000F0CE8006217868FFF7B3FA0346194671
:100FF0007868FFF755FAFB78012B40F2C1800C218D
:101000007868FFF7A6FA034619467868FFF748FAAA
:10101000FB78022B40F2B48012217868FFF799FA2E
:10102000034619467868FFF73BFAFB78032B40F23A
:10103000A78018217868FFF78CFA0346194678686C
:10104000FFF72EFAFB78042B40F29A804FF4807160
:101050007868FFF77EFA034619467868FFF720FAAA
:10106000FB78052B40F28C804FF483717868FFF792
:1010700070FA034619467868FFF712FAFB78062BD8
:101080007ED94FF486717868FFF763FA03461946F4
:101090007868FFF705FAFB78072B71D94FF489714F
:1010A0007868FFF756FA034619467868FFF7F8F9AB
:1010B000FB78082B64D94FF48C717868FFF749FAF4
:1010C000034619467868FFF7EBF9FB78092B57D9E7
:1010D0004FF400717868FFF73CFA034619467868C8
:1010E000FFF7DEF9FB780A2B4AD940F2062178682F
:1010F000FFF72FFA034619467868FFF7D1F9FB7816
:101100000B2B3DD94FF403717868FFF722FA0346A1
:1011100019467868FFF7C4F9FB780C2B30D940F2F8
:1011200012217868FFF715FA034619467868FFF729
:10113000B7F9FB780D2B23D94FF406717868FFF7C8
:1011400008FA034619467868FFF7AAF9FB780E2BD0
:1011500016D94FF440717868FFF7FBF9034619463A
:101160007868FFF79DF9FB78102B09D140F2063122
:101170007868FFF7EEF9034619467868FFF790F9AB
:10118000BB78002B2FD009217868FFF72CFA034693
:1011900019467868FFF784F9BB78012B23D940F210
:1011A0000F117868FFF71FFA034619467868FFF7B2
:1011B00077F9BB78022B16D940F215217868FFF732
:1011C00012FA034619467868FFF76AF9BB78032BD1
:1011D00009D940F21B317868FFF705FA0346194632
:1011E0007868FFF75DF900BF0837BD4680BD80B560
:1011F00082B000AF78600B46FB70FB78012B0DD1FD
:101200007B681B691846FFF77EF90346012B12D055
:101210007B681B691846FFF76FFA0CE07B681B6957
:101220001846FFF7CDF90346012B04D07B681B69F4
:101230001846FFF775FA00BF0837BD4680BD0000AD
:1012400090B589B002AFF860084611461A460346C9
:101250007B810B463B811346FB8000237B61FB684F
:101260001B693C4A934201D13B4B7B617B69002B5C
:101270006BD0FB681A697B691A617B690022DA719D
:10128000FB88012B61D03B89002B47D07B695B7ABF
:10129000DBB2082B42D0FB68DA687B69DA60FB6856
:1012A0001A687B691A60FB685A697B695A61FB6836
:1012B0009A797B699A71FB681A797B691A717B69E3
:1012C0001B69B96A1846FFF731F97B89012B21D0D8
:1012D0007B89042B16D17B691B6903211846FFF714
:1012E0005CF97B6918697B6959697B699B791C4644
:1012F0007B69DA687B691B68009313462246FFF717
:101300004AFD07E07B89022B04D17B691B691846E3
:10131000FFF74DFA7B6908225A7216E03B89002BD1
:1013200013D17B699B7ADBB2082B0ED0FB685A790C
:101330007B695A717B89022B04D17B691B69184632
:10134000FFF745FA7B6908229A727B6918461C37B9
:10135000BD4690BD002002403400002480B582B01C
:1013600000AF78607B681B691846FFF77FF903467A
:10137000002B04D17B681B691846FFF74FF900BFAB
:101380000837BD4680BD80B586B000AFF8600B461B
:101390007A607B810123FB82FB681B69002B46D0AE
:1013A0007B89012B05D1F868FFF7B2FC0346FB826D
:1013B0003DE07B89042B1FD1FB681B691846FFF7B2
:1013C000A2F80346002B32D0FB6801225A72FB6858
:1013D0001B691846FFF790F900BFFB685B7ADBB228
:1013E000042BFAD17968F868FFF735FDFB6808220D
:1013F0005A720023FB821AE07B89022B17D1FB680B
:101400005B7ADBB2202B09D0FB685B7ADBB2042B62
:1014100004D0FB685B7ADBB2102B08D1FB68082292
:101420005A727968F868FFF716FD0023FB82FB8A81
:1014300018461837BD4680BD80B582B000AF7860D1
:101440000B467B8013463B807B681B691846FFF781
:101450000DF90346002B04D07B681B691846FFF783
:10146000F1F87B681B691846FFF714FA0346002B56
:1014700004D07B681B691846FFF7E9F97B681B6994
:101480001846FFF7F4F90346002B04D07B681B696C
:101490001846FFF7BCF93B88002B32D07B88012B24
:1014A00014D07B88022B05D17B681B691846FFF797
:1014B0009EF90BE07B88042B08D17B6818697B6858
:1014C00059697B689B791A46FFF7AAFC7B68002262
:1014D000DA607B6800221A607B6800225A617B68B0
:1014E00000229A717B6800221A717B6840225A722E
:1014F0007B681A697B681B7919461046FFF716F856
:101500000DE07B6800225A717B6840229A727B88CA
:10151000022B04D17B681B691846FFF788F900BFCE
:101520000837BD4680BD000080B586B000AFF860CA
:10153000B9601346FB71FB681B691846FFF796F804
:101540000346012B04D1FB681B691846FFF77AF8A4
:10155000FB79002B11D1FB681B6940F2FF72B9685F
:101560001846FFF797F800BFFB681B691846FFF79E
:10157000AFF80346012BF7D034E0FB79012B10D1F3
:10158000FB681B691E4AB9681846FFF783F800BF5D
:10159000FB681B691846FFF79BF80346012BF7D041
:1015A00020E0FB681B6940F2FF72B9681846FFF73C
:1015B00071F800BFFB681B691846FFF789F80346FE
:1015C000012BF7D0FB681B690D4AB9681846FFF775
:1015D00061F800BFFB681B691846FFF779F80346FE
:1015E000012BF7D004237B6102E07B69013B7B6127
:1015F0007B69002BF9D100BF00BF1837BD4680BD05
:101600000000FF4780B483B000AF78607B681B6840
:1016100043F001027B681A6000BF0C37BD465DF8DD
:10162000047B704780B483B000AF78607B681B6830
:1016300023F001027B681A6000BF0C37BD465DF8DD
:10164000047B704780B483B000AF78607B681B6810
:1016500003F00103012B01D1012300E00023184610
:101660000C37BD465DF8047B704780B483B000AF93
:1016700078607B68DB6803F4800318460C37BD464E
:101680005DF8047B704780B483B000AF78607B68FE
:101690001B6843F480627B681A6000BF0C37BD464C
:1016A0005DF8047B704780B483B000AF78607B68DE
:1016B0001B6843F400727B681A6000BF0C37BD469C
:1016C0005DF8047B704780B483B000AF7860396008
:1016D0007B68DB6823F080723B681A437B68DA60C2
:1016E00000BF0C37BD465DF8047B704780B483B003
:1016F00000AF78607B68DB6803F0807318460C37B6
:10170000BD465DF8047B704780B483B000AF78605D
:1017100039607B68DB6823F000723B681A437B68A2
:10172000DA6000BF0C37BD465DF8047B704780B4BB
:1017300083B000AF78607B68DB6803F00073184605
:101740000C37BD465DF8047B704780B485B000AFB0
:1017500078607B681B6803F40063FB607B68DB6870
:1017600003F4C023BB60FA68BB6813431846143700
:10177000BD465DF8047B704780B483B000AF7860ED
:1017800039607B689B6823F01F023B681A437B68C3
:101790009A6000BF0C37BD465DF8047B704780B48B
:1017A00083B000AF78607B689B6803F01F03184626
:1017B0000C37BD465DF8047B704780B483B000AF42
:1017C00078607B685B6903F00103012B01D1012381
:1017D00000E0002318460C37BD465DF8047B7047D7
:1017E00080B483B000AF78607B685B6903F0080366
:1017F000082B01D1012300E0002318460C37BD4619
:101800005DF8047B704780B483B000AF78607B687C
:101810005B6903F48053B3F5805F01D1012300E0DD
:10182000002318460C37BD465DF8047B704780B432
:1018300083B000AF78607B685B6903F40043B3F565
:10184000004F01D1012300E0002318460C37BD46AC
:101850005DF8047B704780B483B000AF78607B682C
:101860005B6903F4C04318460C37BD465DF8047B42
:10187000704780B483B000AF78607B6830331B78EA
:10188000DBB218460C37BD465DF8047B704780B567
:1018900082B000AF78607868FFF7D4FE0346002B73
:1018A00054D07868FFF7E1FE0346B3F5800F4AD1C4
:1018B0007868FFF74AFF0346B3F5C02F1CD178685C
:1018C000FFF7E1FE02E07868FFF7D3FF7868FFF7E3
:1018D000AEFF0346002BF6D17868FFF7BCFF034646
:1018E000002BF0D17868FFF768FF0346002BEAD1A0
:1018F0007868FFF797FE29E000BF7868FFF783FF5D
:101900000346012B09D07868FFF76AFF0346012BD5
:10191000F3D102E07868FFF7ACFF7868FFF787FF44
:101920000346002BF6D17868FFF795FF0346002B9E
:10193000F0D17868FFF741FF0346002BEAD17868C1
:10194000FFF770FE02E07868FFF76CFE00BF083713
:10195000BD4680BD80B584B000AF78607B68002B49
:101960000CD07B68BB60BB685B691A4A934202D1AA
:10197000194BFB6004E00023FB6001E00023FB60E7
:10198000FB68002B20D0BB685A69FB685A61FB6872
:101990005B691846FFF7D9FE0346B3F5C02F0ED199
:1019A000FB685B691846FFF760FE0346B3F5800FDE
:1019B00005D1FB685B691846FFF734FE04E0FB685D
:1019C0005B691846FFF71EFEFB6818461037BD46D8
:1019D00080BD00BF003001405000002480B586B0BB
:1019E00000AFF8607A601A460B467B8113467B7223
:1019F0007B689BB21B0AFB827B89FA6813441B7AC3
:101A0000002B0BD0FB681A887B7A9BB29A4205D1D7
:101A1000FB685B687A689A4200F0D4807B7A9AB25D
:101A2000FB681A80FB687A685A60FB685B69184635
:101A3000FFF72DFFFB681B88002B1ED1FB685B693D
:101A40001846FFF753FE0346002B05D0FB685B6981
:101A500000211846FFF737FEFB685B691846FFF761
:101A600066FE0346B3F1007F6BD0FB685B694FF005
:101A700000711846FFF748FE63E0FB681B88012BE6
:101A800020D1FB685B691846FFF730FE0346B3F1CF
:101A9000807F06D0FB685B694FF080711846FFF7C6
:101AA00012FEFB685B691846FFF741FE0346B3F17F
:101AB000007F46D0FB685B694FF000711846FFF766
:101AC00023FE3EE0FB681B88022B1CD1FB685B6990
:101AD0001846FFF70BFE0346002B05D0FB685B6939
:101AE00000211846FFF7EFFDFB685B691846FFF71A
:101AF0001EFE0346002B24D0FB685B6900211846BC
:101B0000FFF702FE1DE0FB685B691846FFF7EEFD7C
:101B10000346B3F1807F06D0FB685B694FF08071AC
:101B20001846FFF7D0FDFB685B691846FFF7FFFD1D
:101B30000346002B05D0FB685B6900211846FFF7C0
:101B4000E3FDFB685B691846FFF729FE02467B68E8
:101B5000934207D0FB685A697B681B0A19461046F6
:101B6000FFF70AFEFB685B691846FFF7EEFD0346C8
:101B7000B3F5C02F0ED1FB685B691846FFF775FD02
:101B80000346B3F5800F05D1FB685B691846FFF784
:101B90007EFE12E0FB685B691846FFF733FDFB68C9
:101BA0005B691846FFF761FD0346B3F5800F04D16A
:101BB000FB685B691846FFF776FD7B89FA6813447A
:101BC00001221A72002318461837BD4680BD80B422
:101BD00085B000AFF860B9607A603B6000BF143731
:101BE000BD465DF8047B704780B483B000AF786079
:101BF0007B681B6843F001027B681A6000BF0C37EA
:101C0000BD465DF8047B704780B483B000AF786058
:101C10007B681B6803F00103012B01D1012300E065
:101C2000002318460C37BD465DF8047B704780B42E
:101C300083B000AF78607B685B6903F00203022B1E
:101C400001D1012300E0002318460C37BD465DF8A2
:101C5000047B704780B483B000AF78607B685B69B9
:101C600003F40043B3F5004F01D1012300E000234A
:101C700018460C37BD465DF8047B704780B483B0CE
:101C800000AF78607B685B6903F4C04318460C378B
:101C9000BD465DF8047B704780B483B000AF7860C8
:101CA0007B6830331B78DBB218460C37BD465DF8D5
:101CB000047B704780B483B000AF78607B681B6B97
:101CC0009BB218460C37BD465DF8047B704780B464
:101CD00083B000AF78607B681B6B18460C37BD463D
:101CE0005DF8047B704780B483B000AF78600B462A
:101CF000FB707B682033FA781A7000BF0C37BD4642
:101D00005DF8047B704780B485B000AF78600B4607
:101D10007B807B682033FB60FB687A881A8000BF79
:101D20001437BD465DF8047B704780B483B000AFC4
:101D3000786039607B683A681A6200BF0C37BD462C
:101D40005DF8047B704780B483B000AF78607B6837
:101D50001B6918460C37BD465DF8047B704780B49C
:101D600083B000AF786039607B683A689A6100BFE1
:101D70000C37BD465DF8047B704780B483B000AF7C
:101D8000786039603B681A047B689A6100BF0C3741
:101D9000BD465DF8047B704790B58FB000AFF8602A
:101DA000B9607A607B8000237B860023FB6203F0AE
:101DB000F9F8F86201233B86B7F84C30002B01D1CB
:101DC00000233B65FB685B691846FFF71DFF034670
:101DD000002B04D1FB685B691846FFF705FF7B8881
:101DE000DBB2002B6CD17B68BB61BB687B610023DD
:101DF000FB860023BB865AE0FB685B691846FFF749
:101E000016FF0346012B15D13B8E012B12D1FB8E01
:101E1000BA6C9A420ED9FB685869FB8E7A691344F2
:101E20001B781946FFF75FFFFB8E0133FB8600230B
:101E30003B860AE00121F86A00F0ECFF02463B6DA8
:101E4000934202D201237B8620E1FB685B6918463E
:101E5000FFF700FF0346012B07D0FB685B691846BC
:101E6000FFF70CFF0346002B16D0BB8EBA6C9A42CC
:101E700012D93B8E002B0FD1FB685969BB8EBA6912
:101E8000D4180846FFF708FF03462370BB8E0133C2
:101E9000BB8601233B860AE00121F86A00F0BAFF05
:101EA00002463B6D934202D201237B86EEE0FB8E1D
:101EB000BA6C9A42A0D8BB8EBA6C9A429CD8E5E024
:101EC0007B88DBB2012B6ED17B683B62BB68FB6118
:101ED0000023FB860023BB865CE0FB685B69184639
:101EE000FFF7A5FE0346012B16D13B8E012B13D124
:101EF000FB8EBA6C9A420FD9FB685869FB8E5B0067
:101F0000FA6913441B881946FFF7FDFEFB8E013367
:101F1000FB8600233B860AE00121F86A00F07AFF85
:101F200002463B6D934202D201237B86AEE0FB6802
:101F30005B691846FFF78EFE0346012B07D0FB684E
:101F40005B691846FFF79AFE0346002B17D0BB8E3D
:101F5000BA6C9A4213D93B8E002B10D1FB68596999
:101F6000BB8E5B003A6AD4180846FFF7A3FE03460F
:101F70002380BB8E0133BB8601233B860AE001210F
:101F8000F86A00F047FF02463B6D934202D20123FC
:101F90007B867BE0FB8EBA6C9A429ED8BB8EBA6C75
:101FA0009A429AD872E07B88DBB2022B6DD17B68B3
:101FB000BB62BB687B620023FB860023BB865CE0C0
:101FC000FB685B691846FFF732FE0346012B16D10A
:101FD0003B8E012B13D1FB8EBA6C9A420FD9FB6852
:101FE0005869FB8E9B007A6A13441B681946FFF7F9
:101FF0009CFEFB8E0133FB8600233B860AE0012119
:10200000F86A00F007FF02463B6D934202D20123BB
:102010007B863BE0FB685B691846FFF71BFE0346C7
:10202000012B07D0FB685B691846FFF727FE0346C4
:10203000002B17D0BB8EBA6C9A4213D93B8E002B63
:1020400010D1FB685969BB8E9B00BA6AD418084648
:10205000FFF73DFE03462360BB8E0133BB860123A1
:102060003B860AE00121F86A00F0D4FE02463B6D8F
:10207000934202D201237B8608E0FB8EBA6C9A421F
:102080009ED8BB8EBA6C9A429AD800BF7B8EDBB2C8
:1020900018463C37BD4690BD80B586B000AF87ED91
:1020A000030AB8607960BB68D3ED007A97ED037AD4
:1020B000B4EEE77AF1EE10FA02D800237B613AE041
:1020C0007B689B00BA681344D3ED007A97ED037ADE
:1020D000B4EEE77AF1EE10FA2BD57B685B087A68EC
:1020E0001946B86897ED030A00F02AF878617A6912
:1020F0007B689A421FD27B6901339B00BA68134404
:1021000093ED007AD7ED037A37EE677A7B699B000F
:10211000BA681344D3ED007AD7ED036A76EEE77A16
:10212000B4EEE77AF1EE10FA05D87B6901337B61F2
:1021300001E07B687B617B6918461837BD4680BD2E
:1021400080B489B000AF87ED030AB86079603A6067
:102150007B68FB610023BB613B687B6116E0FB6928
:102160009B00BA681344D3ED007A97ED037AB4EE7E
:10217000E77AF1EE10FA02D5FB697B6101E0FB69B9
:10218000BB617A69BB6913445B08FB617A69BB690F
:10219000D31A012BE3D8BB6918462437BD465DF836
:1021A000047B704780B588B000AF78607B68002200
:1021B0001A707B6801221A747B6801225A600C4BEA
:1021C000FB6107F108031846FFF7C4FB02467B6872
:1021D000DA607B68D86802234FF4E0620021FFF7E1
:1021E000FDFB7B6801221A7200BF2037BD4680BD0F
:1021F0000030014080B588B004AF03463960FB7100
:102200003B68D86802234FF4E0620021FFF7E6FB49
:102210000346FB72FB7A002B17D10E4BFB6010219B
:10222000F868FFF7AAFD3B68D86807F10B02F91DB3
:102230000A23029301230193012300930023FFF754
:10224000ABFD1021F868FFF78AFD00BF1037BD46CF
:1022500080BD00BF0000025880B586B002AF786034
:102260007B681B78002B16D17B6801221A707B6873
:102270005B68012B0FD17B681B7A002B0BD04FF0D2
:10228000FF33FB607B68D86804230093FB68FA681F
:10229000F968FFF79CFC00BF1037BD4680BD000009
:1022A00080B588B000AF78607B6800221A707B68C8
:1022B00001221A747B6801225A600C4BFB6107F102
:1022C00008031846FFF746FB02467B68DA607B6826
:1022D000D86802234FF4E0620021FFF77FFB7B68A0
:1022E00001221A7200BF2037BD4680BD0030014078
:1022F00080B58AB004AF786039603B68D868022343
:102300004FF4E0620021FFF769FB0346FB75FB7D9C
:10231000002B17D10D4B3B6110213869FFF72DFDC4
:102320003B68D86807F10C020A230293012301934A
:102330000323009300237968FFF72EFD10213869ED
:10234000FFF70DFD00BF1837BD4680BD00000258E5
:1023500080B586B002AF78607B681B78002B16D101
:102360007B6801221A707B685B68012B0FD17B6848
:102370001B7A002B0BD04FF0FF33FB607B68D868D3
:1023800004230093FB68FA68F968FFF720FC00BF9C
:102390001037BD4680BD000080B58CB002AF7860BC
:1023A0007B6801225A607B681D4A1A6100237B7496
:1023B0007B681B69BB611B4BFB611B4B3B620023B2
:1023C000BB74032387F82430012387F825300523C5
:1023D000FB6005233B7407F10C00042300930223E8
:1023E00001220421FEF72CFF02467B68DA607B683D
:1023F000DB68022200211846FFF796F87B68DB684D
:102400001846FEF7ABFF7B68DB6801211846FEF734
:10241000EEFE7B6801221A7200BF2837BD4680BDE0
:102420000000000000200240000002400000000008
:1024300080B5B0B004AFB348FFF785FCC7F8A8007B
:10244000D7F8A83003F40063002B0CBF012300234E
:10245000DBB21A46AC4B83F82F20D7F8A83003F430
:102460008053002B0CBF01230023DBB21A46A64B7E
:1024700083F83020D7F8A83003F48063002B0CBF1A
:1024800001230023DBB21A469F4B83F83120D7F893
:10249000A83003F40073002B0CBF01230023DBB230
:1024A0001A46994B83F83220984BD3ED107A0F21BE
:1024B0009748B0EE670AFFF7EFFD0346944A1344CE
:1024C00093F84C20904B83F82C20904BD3ED117A4D
:1024D0000F218F48B0EE670AFFF7DEFD03468C4AF6
:1024E000134493F84C20884B83F82D20874BD3ED71
:1024F000127A0F218648B0EE670AFFF7CDFD03463A
:10250000834A134493F84C207F4B83F82E207F4B53
:10251000DB6807F12C0202211846FEF734FF002386
:10252000C7F8AC301DE0D7F8AC309B00A83307F1FA
:102530000802134453F8843C07EE903AF8EE677AA9
:102540009FED747A67EE877A6F4AD7F8AC3006331E
:102550009B001344C3ED007AD7F8AC300133C7F8C1
:10256000AC30D7F8AC30042BDDDD674B40F2FB120A
:102570005A60654B06225A70634B00221A70624BF8
:1025800000229A70604B00221A745F4B00225A742A
:102590005D4B00229A745C4B0022DA745A4B002285
:1025A0001A75594B00225A75574B00229A75564B93
:1025B0000022DA750023C7F89830534B93F82F3078
:1025C000C7F89430D7F89430C7F89830D7F89830D7
:1025D000012B03D9012387F8A73003E0D7F89830FF
:1025E00087F8A730484B1B7C5AB297F9A73003F005
:1025F00001035BB213435BB2DAB2434B1A7400239C
:10260000C7F89030404B93F83030C7F88C30D7F88B
:102610008C30C7F89030D7F89030012B03D90123C4
:1026200087F8A63003E0D7F8903087F8A630364B0D
:102630001B7C5AB297F9A6305B005BB203F0020331
:102640005BB213435BB2DAB22F4B1A740023C7F8A4
:1026500088302D4B93F83130C7F88430D7F8843068
:10266000C7F88830D7F88830012B03D9012387F8C1
:10267000A53003E0D7F8883087F8A530224B1B7CC3
:102680005AB297F9A5309B005BB203F004035BB22A
:1026900013435BB2DAB21C4B1A740023C7F88030C4
:1026A000194B93F83230FB67FB6FC7F88030D7F8CF
:1026B0008030012B03D9012387F8A43003E0D7F839
:1026C000803087F8A430104B1B7C5AB297F9A430A5
:1026D000DB005BB203F008035BB213435BB2DAB218
:1026E000094B1A740023BB67074B93F82C307B67A8
:1026F0007B6FBB67BB6F0F2B0ED90F2387F8A330FF
:102700000DE000BF0000025868000024A000002473
:10271000A05E000806345338BB6F87F8A330814BA6
:102720005A7C97F8A3301B01DBB21343DAB27D4B1E
:102730005A7400233B677B4B93F82D30FB66FB6E8E
:102740003B673B6F0F2B03D90F2387F8A23002E0C2
:102750003B6F87F8A230734B1A7C97F8A2301B01AD
:10276000DBB21343DAB26F4B1A740023BB666D4BB6
:1027700093F82E307B667B6EBB66BB6E0F2B03D946
:102780000F2387F8A13002E0BB6E87F8A130654BBC
:102790005B7C5AB297F9A13003F00F035BB213438D
:1027A0005BB2DAB25F4B5A744FF000033B665D4B8D
:1027B0005B6AFB6597ED170A03F058FA87ED180A74
:1027C000D7ED187A9FED587AF4EEC77AF1EE10FA49
:1027D00003DDFF2387F8A03013E0D7ED187AF5EE7C
:1027E000C07AF1EE10FA03D5002387F8A03008E094
:1027F000D7ED187AFCEEE77AC7ED017A3B7987F8D6
:10280000A030484B9A7C97F8A0301343DAB2454B7E
:102810009A744FF00003BB65424B9B6A7B6597ED52
:10282000150A03F023FA87ED160AD7ED167A9FED05
:102830003E7AF4EEC77AF1EE10FA03DDFF2387F853
:102840009F3013E0D7ED167AF5EEC07AF1EE10FA6C
:1028500003D5002387F89F3008E0D7ED167AFCEE09
:10286000E77AC7ED017A3B7987F89F302D4BDA7C08
:1028700097F89F301343DAB22A4BDA742B4B93F854
:102880005030002B00F09C80264B5B68C7F8A830C6
:10289000244B5B68B3F5803F03D34FF6FF73C7F853
:1028A000A8300023C7F8AC300EE0D7F8AC300233C4
:1028B000A83307F108021344002203F8942CD7F838
:1028C000AC300133C7F8AC30D7F8AC300C2BECDDB2
:1028D000D7F8A8309BB2DB089BB2C7F8AC30D7F86A
:1028E000AC30FF2B02DDFF23C7F8AC30D7F8AC309B
:1028F000DBB2BB77D7F8A830DBB25B01DBB2FB778A
:10290000002387F82030002387F82130054B5B78BF
:1029100003F00F03DBB287F822300023C7F8AC3096
:102920001AE000BF6800002400007F43A0000024DC
:10293000D7F8AC3007337449D7F8AC200A441032CA
:102940001278A83307F108010B4403F8942CD7F848
:10295000AC300133C7F8AC30D7F8AC30072BE7DD2B
:1029600002233B7731237B77684B186A02234FF4AD
:10297000E0620021FFF732F8034687F8533097F8FA
:102980005330002B18D1624BFB641021F86CFFF719
:10299000F4F95E4B186A07F10C0207F11C010A23D7
:1029A0000293012301930F2300930023FFF7F4F90F
:1029B0001021F86CFFF7D3F956498120FFF71AFC74
:1029C000554B5B6807EE903AB8EE677B9FED4C6B1A
:1029D00027EE067BB7EE006BB4EEC67BF1EE10FA85
:1029E0004CBF01230023DBB283F00103DBB287F885
:1029F0004B3097F84B3007EE903AB8EE676B434B8D
:102A000093ED0A7BB4EEC76BF1EE10FA13DD434988
:102A1000C020FFF7EFFB42494248FFF769FC4249FB
:102A20004248FFF765FC42494248FFF761FC4249D2
:102A30004248FFF75DFC354BD3E90C23C7E910236F
:102A4000324B93ED0C6B314B93ED0E7BB4EEC76BB9
:102A5000F1EE10FA04DC2D4B93F85030002B01D02E
:102A6000012300E00023DAB2284B83F85020264BE4
:102A7000D3ED087A9FED327AF4EEC77AF1EE10FAD0
:102A800003DD214B1B6A214A13641F4BD3ED067AE9
:102A90009FED2B7AF4EEC77AF1EE10FA03DD1A4BB4
:102AA0009B691A4A5364184BD3ED077A9FED247A39
:102AB000F4EEC77AF1EE10FA03DD134BDB69134A2B
:102AC000936497F84B3007EE903AB8EE677B0F4B64
:102AD00083ED0A7B97F84B3007EE903AB8EE677BB0
:102AE0000A4B83ED0C7B0949D7E91023C1E90E237A
:102AF000094B5A6801325A6000BFB037BD4680BDED
:102B0000FCA9F1D24D62503F68000024A0000024CF
:102B100000000258580100247001002444010024E0
:102B200030010024E05E00081C010024E35E000880
:102B300008010024E65E0008F4000024E95E0008B5
:102B4000CDCC4C3E80B586B000AF214B214A1A64F3
:102B50001F4B204A5A641E4B1E4A9A641C4B00228B
:102B60001A751B4B01229A611B4B7B613B46184631
:102B7000FEF7F0FE0346164A1362154B186A02234D
:102B80004FF4E0620021FEF729FF114B01221A7772
:102B90001248FFF707FB1248FFF704FB1148FFF745
:102BA0007FFB1148FFF77CFB1048FFF779FB1048CB
:102BB000FFF776FB064B00225A60054B00221A7085
:102BC0000348FFF7E9FB00BF1837BD4680BD00BFD3
:102BD000A00000243333F33F0030014058010024AB
:102BE00044010024300100241C01002408010024B9
:102BF000F400002480B584B002AF234B1B78002B77
:102C000011D1214B01221A701F4B5B68012B0AD195
:102C10001D4B1B7A002B06D01B4BDB6801220421C5
:102C20001846FEF709FC184B1B7D002B16D1164BDE
:102C300001221A75144B9B69012B0FD1124B1B7F7C
:102C4000002B0BD04FF0FF337B600F4B186A04232F
:102C500000937B687A687968FEF7B9FF0B48FFF745
:102C6000FBFA0B48FFF7F8FA0A48FFF771FB0A482E
:102C7000FFF76EFB0948FFF76BFB0948FFF768FB9E
:102C800000BF0837BD4680BDA000002458010024C5
:102C900044010024300100241C0100240801002408
:102CA000F400002480B500AF0F4B1B785A1CD1B242
:102CB0000D4A1170002B09D00C4B01221A600A4BEF
:102CC0001B78013BDAB2084B1A700BE062B600BF0A
:102CD000FFF7AEFB72B600BF034B1B78013BDAB2C5
:102CE000014B1A7080BD00BF7C01002478010024D4
:102CF00080B584B000AF78603960304BFB604FF036
:102D00008543BB602E4B00221A702E4B00221A7096
:102D100001DF02F0F7F801F027F801F091F801F077
:102D2000A5FA01F08BFA01F0AFF800220521264840
:102D3000FEF74CF901F0D8F901F032FA234B1B6889
:102D400000221A60FFF7FEFE72B600BF97ED030A7D
:102D500000F0F6F81D4B1B681B68002B0CBF01230D
:102D60000023DBB21A46174B1A7062B600BF62B678
:102D700000BF15E0154B1B681B68002B14BF012317
:102D80000023DBB21A460E4B1A700D4B1B78DBB2D8
:102D9000002B05D00E4B1B680D4A23F00103136076
:102DA000084B1B78DBB2002BE4D1FFF723FF72B690
:102DB00000BF002318461037BD4680BD6F12833A0E
:102DC0007D0100247E010024002002409C5E00085A
:102DD00010E000E010B50E4C82B0636A019302F07F
:102DE000E1F80090626A019B9A4207D3009B4FF47E
:102DF0007A72019802FB030002B010BD02F0D2F813
:102E0000636A4FF47A7202FB003002B010BD00BF5B
:102E10000000014010B5044641B9FFF7DBFF03464F
:102E2000181BA34238BF00F1FF3010BD02F0BAF802
:102E30000346181BA34238BF00F1FF3010BD00BF8E
:102E400080B483B000AF03463960FB80B7F9063029
:102E5000002B0ADB3B68DAB20C49B7F906301201E5
:102E6000D2B20B4483F800230AE03B68DAB2084987
:102E7000FB8803F00F03043B1201D2B20B441A7615
:102E800000BF0C37BD465DF8047B704700E100E0F1
:102E900000ED00E080B582B000AF78607B68013B58
:102EA000B3F1807F01D301230FE00A4A7B68013B25
:102EB00053600F214FF0FF30FFF7C2FF054B002298
:102EC0009A60044B07221A60002318460837BD4653
:102ED00080BD00BF10E000E080B500AFBFF34F8FB2
:102EE00000BFBFF36F8F00BF0B4B1A680B4B1B6803
:102EF0009A4202D3084B00221A60074B1B685A1CE7
:102F000005490A60002B05D172B600BFFFF7CAFE63
:102F100062B600BF00BF80BD800100248401002490
:102F200080B400AF054B5B68044A43F080535360A4
:102F300000BFBD465DF8047B704700BF00ED00E0B8
:102F400080B584B000AF87ED010A234B1B6807EE04
:102F5000903AB8EE677AD7ED017A67EE277AFCEE01
:102F6000E77A17EE903AFB60FB68B3F1807F18D3E5
:102F7000FB6807EE903AB8EE677ADFED186AC7EEA5
:102F8000267AFCEEE77A17EE903A0133144A136082
:102F9000134B1B68FA68B2FBF3F31846FFF77AFF8E
:102FA00005E00F4B00221A60F868FFF773FF0D4B26
:102FB00000221A600C4A0D4B1A600F216FF00400BA
:102FC000FFF73EFF0F216FF00100FFF739FF00BF51
:102FD0001037BD4680BD00BF08000024FFFF7F4BB7
:102FE0008401002480010024D92E000888010024D7
:102FF000EFF3008001B5EFF3118003B41EF0100F62
:1030000008BFB0EE400A0A48006803B488B004A0C4
:1030100006904FF0807007906FF00600864670476C
:1030200003BC8047BFF36F8F00DFFEE700BF0000E7
:10303000880100241EF0100F08BFB0EE400A1EF0F9
:10304000040F0CBFEFF30880EFF30980816911F8DA
:10305000020C10B101280DD00BE01EF0100F0CBFB8
:103060001AB008B003BC80F3118803BC80F3008859
:103070000847FEE74EF61451CEF200010A6842F00E
:1030800001020A607047F4E700BF00BF80B400AFE0
:10309000044BDB681B0A03F007031846BD465DF8C6
:1030A000047B704700ED00E080B483B000AF0346BE
:1030B000FB80B7F90630002B0BDBFB8803F01F0207
:1030C0000749B7F906305B09012000FA02F241F81E
:1030D000232000BF0C37BD465DF8047B704700BF5E
:1030E00000E100E080B483B000AF03463960FB80AC
:1030F000B7F90630002B0ADB3B68DAB20C49B7F9A6
:1031000006301201D2B20B4483F800230AE03B6878
:10311000DAB20849FB8803F00F03043B1201D2B274
:103120000B441A7600BF0C37BD465DF8047B704730
:1031300000E100E000ED00E080B489B000AFF8608D
:10314000B9607A60FB6803F00703FB61FB69C3F1B8
:103150000703042B28BF0423BB61FB690433062B40
:1031600002D9FB69033B00E000237B614FF0FF3293
:10317000BB6902FA03F3DA43BB681A407B699A40E1
:103180004FF0FF317B6901FA03F3D9437B680B40B1
:10319000134318462437BD465DF8047B704780B45E
:1031A00083B000AF786039607B68DB6823F44062ED
:1031B0003B681A437B68DA6000BF0C37BD465DF898
:1031C000047B704780B487B000AFF860B9607A6064
:1031D000FB6830331A46BB681B0A9B0003F00C03E4
:1031E00013447B617B691A68BB6803F01F031F21CE
:1031F00001FA03F3DB431A407B689B0E03F01F01C7
:10320000BB6803F01F0301FA03F31A437B691A60DA
:1032100000BF1C37BD465DF8047B704780B487B0A3
:1032200000AFF860B9607A60FB6814331A46BB6877
:103230005B0E9B0003F0040313447B617B691A68F7
:10324000BB681B0D03F01F03072101FA03F3DB43E7
:103250001A40BB681B0D03F01F03796801FA03F3E2
:103260001A437B691A6000BF1C37BD465DF8047BBA
:103270007047000080B485B000AFF860B9607A6034
:10328000FB68D3F8C020BB68C3F31303DB431A40C9
:103290007B6803F018030849D940BB680B40C3F3AF
:1032A00013031A43FB68C3F8C02000BF1437BD46A0
:1032B0005DF8047B704700BFFFFF0F0080B483B050
:1032C00000AF786039607B681A69064B13403A6832
:1032D0001A437B681A6100BF0C37BD465DF8047B5A
:1032E000704700BFFCFBFFFF80B483B000AF786085
:1032F0007B689A68044B13407A68936000BF0C3770
:10330000BD465DF8047B7047C0FFFF5F80B483B0AB
:1033100000AF78607B689A68054B134043F0805299
:103320007B689A6000BF0C37BD465DF8047B704730
:10333000C0FFFF6F80B487B000AFF860B9607A60FB
:10334000FB687B610D4ABB6813441B781A467B6996
:1033500013441B6823F0C0020849BB680B441B7868
:1033600019467B690B4419467B6813430B6000BF09
:103370001C37BD465DF8047B704700BFFC5E00084B
:1033800080B487B000AFF860B9607A60FB687B6199
:103390000D4ABB6813441B781A467B6913441B68AB
:1033A00023F490720849BB680B441B7819467B696B
:1033B0000B4419467B6813430B6000BF1C37BD46A6
:1033C0005DF8047B704700BFFC5E000880B487B0E6
:1033D00000AFF860B9607A60FB687B610D4ABB683A
:1033E00013441B781A467B6913441B6823F400724C
:1033F0000849BB680B441B7819467B690B44194686
:103400007B6813430B6000BF1C37BD465DF8047B2F
:10341000704700BFFC5E000880B487B000AFF86062
:10342000B9607A60FB687B610D4ABB6813441B7806
:103430001A467B6913441B6823F480620849BB6801
:103440000B441B7819467B690B4419467B68134370
:103450000B6000BF1C37BD465DF8047B704700BFA2
:10346000FC5E000880B487B000AFF860B9607A6095
:10347000FB687B610D4ABB6813441B781A467B6965
:1034800013441B6823F4C0520849BB680B441B78E3
:1034900019467B690B4419467B6813430B6000BFD8
:1034A0001C37BD465DF8047B704700BFFC5E00081A
:1034B00080B487B000AFF860B9607A60FB687B6168
:1034C0000D4ABB6813441B781A467B6913441B687A
:1034D00023F4C0420849BB680B441B7819467B693A
:1034E0000B4419467B6813430B6000BF1C37BD4675
:1034F0005DF8047B704700BFFC5E000880B487B0B5
:1035000000AFF860B9607A60FB687B610D4ABB6808
:1035100013441B781A467B6913441B6823F440321A
:103520000849BB680B441B7819467B690B44194654
:103530007B6813430B6000BF1C37BD465DF8047BFE
:10354000704700BFFC5E000880B485B000AFF86033
:10355000B9607A60BA68124B13449B00FA6811494B
:103560008A4201D1002200E0202213441B6823F08C
:10357000FF02B9680A4B0B449B00F9680948814275
:1035800001D1002100E020210B4419467B68134340
:103590000B6000BF1437BD465DF8047B704700BF69
:1035A000008200100000024080B485B000AF786057
:1035B00039607B68FB600C4A3B6813441B781A46F1
:1035C000FB6813445B6908493A680A44127811465B
:1035D000FA680A4423F00403536100BF1437BD4660
:1035E0005DF8047B704700BFFC5E000880B400AF4C
:1035F000054B1B68044A43F00103136000BFBD463E
:103600005DF8047B704700BF0044025880B400AFEF
:10361000064B1B6803F00403042B01D1012300E0D7
:1036200000231846BD465DF8047B704700440258ED
:1036300080B483B000AF7860064B1B6823F018029B
:1036400004497B6813430B6000BF0C37BD465DF82F
:10365000047B70470044025880B483B000AF7860A8
:10366000074B5B6823F0FE427B681B06044913434B
:103670004B6000BF0C37BD465DF8047B704700BF50
:103680000044025880B483B000AF7860064B1B69D9
:1036900023F0070204497B6813430B6100BF0C371A
:1036A000BD465DF8047B70470044025880B400AF0B
:1036B000044B1B6903F038031846BD465DF8047BD4
:1036C000704700BF0044025880B483B000AF7860F8
:1036D000064B9B6923F00F0204497B6813438B61FF
:1036E00000BF0C37BD465DF8047B704700440258AC
:1036F00080B483B000AF7860064BDB6923F07002C2
:1037000004497B681343CB6100BF0C37BD465DF8AD
:10371000047B70470044025880B483B000AF7860E7
:10372000064BDB6923F4E06204497B681343CB61F9
:1037300000BF0C37BD465DF8047B7047004402585B
:1037400080B483B000AF7860064B9B6923F07002B1
:1037500004497B6813438B6100BF0C37BD465DF89D
:10376000047B70470044025880B483B000AF786097
:10377000064B1B6A23F0700204497B6813430B62FB
:1037800000BF0C37BD465DF8047B7047004402580B
:1037900080B485B000AF78607B68DAB2104B134418
:1037A000FB60FB681A687B68190E7B681B0A03F0D4
:1037B0001F0301FA03F3DB431A407B681B0CD9B2E9
:1037C0007B681B0A03F01F0301FA03F31A43FB682B
:1037D0001A6000BF1437BD465DF8047B704700BF18
:1037E0004C44025880B582B000AF78607868FFF72B
:1037F000CFFF00BF0837BD4680BD000080B483B056
:1038000000AF7860064B9B6D23F4403204497B681F
:1038100013438B6500BF0C37BD465DF8047B7047D2
:103820000044025880B483B000AF7860064B9B6AB6
:1038300023F0030204497B6813438B6200BF0C37FB
:10384000BD465DF8047B70470044025880B400AF69
:10385000054B1B68044A43F08073136000BFBD46EC
:103860005DF8047B704700BF0044025880B400AF8D
:10387000074B1B6803F00073B3F1007F01D10123F4
:1038800000E000231846BD465DF8047B704700BF8A
:103890000044025880B400AF054BDB6A044A43F48D
:1038A0008033D36200BFBD465DF8047B704700BF24
:1038B0000044025880B400AF054BDB6A044A43F46D
:1038C0000033D36200BFBD465DF8047B704700BF84
:1038D0000044025880B483B000AF7860074BDB6AC5
:1038E00023F002027B685B0004491343CB6200BFF4
:1038F0000C37BD465DF8047B704700BF004402589A
:1039000080B483B000AF7860074BDB6A23F00C0211
:103910007B689B0004491343CB6200BF0C37BD4654
:103920005DF8047B704700BF0044025880B483B048
:1039300000AF7860074B1A6B074B13407A68013A67
:10394000044913430B6300BF0C37BD465DF8047B8D
:10395000704700BF0044025800FEFFFF80B483B0F0
:1039600000AF7860074B9B6A23F47C727B681B0175
:10397000044913438B6200BF0C37BD465DF8047BDE
:10398000704700BF0044025880B483B000AF786035
:10399000074B1B6B23F47E427B68013B5B020449AF
:1039A00013430B6300BF0C37BD465DF8047B7047C3
:1039B0000044025880B483B000AF7860074B1B6BA3
:1039C00023F4FE027B68013B1B04044913430B6391
:1039D00000BF0C37BD465DF8047B704700440258B9
:1039E00080B483B000AF7860074B1B6B23F0FE42BE
:1039F0007B68013B1B06044913430B6300BF0C3774
:103A0000BD465DF8047B70470044025880B400AFA7
:103A1000054B1B68044A43F08063136000BFBD463A
:103A20005DF8047B704700BF0044025880B400AFCB
:103A3000074B1B6803F00063B3F1006F01D1012352
:103A400000E000231846BD465DF8047B704700BFC8
:103A50000044025880B400AF054BDB6A044A43F4CB
:103A60000023D36200BFBD465DF8047B704700BFF2
:103A70000044025880B483B000AF7860074BDB6A23
:103A800023F020027B685B0104491343CB6200BF33
:103A90000C37BD465DF8047B704700BF00440258F8
:103AA00080B483B000AF7860074BDB6A23F0C002BC
:103AB0007B689B0104491343CB6200BF0C37BD46B2
:103AC0005DF8047B704700BF0044025880B483B0A7
:103AD00000AF7860074B9A6B074B13407A68013A46
:103AE000044913438B6300BF0C37BD465DF8047B6C
:103AF000704700BF0044025800FEFFFF80B483B04F
:103B000000AF7860074B9B6A23F47C327B681B0311
:103B1000044913438B6200BF0C37BD465DF8047B3C
:103B2000704700BF0044025880B483B000AF786093
:103B3000074B9B6B23F47E427B68013B5B0204498D
:103B400013438B6300BF0C37BD465DF8047B7047A1
:103B50000044025880B483B000AF7860074B9B6B81
:103B600023F4FE027B68013B1B04044913438B636F
:103B700000BF0C37BD465DF8047B70470044025817
:103B800080B483B000AF7860074B9B6B23F0FE429C
:103B90007B68013B1B06044913438B6300BF0C3752
:103BA000BD465DF8047B70470044025880B485B080
:103BB00000AF78600A4BD3F8382109497B6813437A
:103BC000C1F83831064BD3F838217B681340FB60CD
:103BD000FB6800BF1437BD465DF8047B704700BF2B
:103BE0000044025880B485B000AF78600A4BD3F827
:103BF000402109497B681343C1F84031064BD3F893
:103C000040217B681340FB60FB6800BF1437BD4652
:103C10005DF8047B704700BF0044025880B485B053
:103C200000AF78600A4BD3F8502109497B681343F1
:103C3000C1F85031064BD3F850217B681340FB602C
:103C4000FB6800BF1437BD465DF8047B704700BFBA
:103C50000044025880B483B000AF7860064B1B6804
:103C600023F00F0204497B6813430B6000BF0C373D
:103C7000BD465DF8047B70470020005280B400AF61
:103C8000044B1B6803F00F031846BD465DF8047B28
:103C9000704700BF0020005280B483B000AF78604E
:103CA000064BDB6823F0070204497B681343CB60B3
:103CB00000BF0C37BD465DF8047B704700480258D2
:103CC00080B483B000AF7860064B9B6923F4404218
:103CD00004497B6813438B6100BF0C37BD465DF818
:103CE000047B70470048025880B483B000AF78600E
:103CF00039607B68DB6823F460123B681A437B6899
:103D0000DA6000BF0C37BD465DF8047B704780B4B5
:103D100083B000AF78607B68DB6823F080427B680B
:103D2000DA6000BF0C37BD465DF8047B704780B495
:103D300083B000AF786039607B683A689A6100BFF1
:103D40000C37BD465DF8047B704780B483B000AF8C
:103D5000786039603B681A047B689A6100BF0C3751
:103D6000BD465DF8047B704780B500AF0220FFF7C9
:103D700071FF00BFFFF782FF0346022BFAD102203A
:103D8000FFF78AFF0020FFF79BFFFFF72FFC00BF24
:103D9000FFF73CFC0346012BFAD12020FFF75CFC27
:103DA0000020FFF745FC0020FFF73CFDFFF772FD08
:103DB000FFF780FD0320FFF7A3FD0020FFF78AFD3A
:103DC0000420FFF7CBFD0820FFF7B0FD0220FFF72E
:103DD000DBFD0120FFF7EEFD0220FFF701FEFFF7FC
:103DE00035FD00BFFFF742FD0346012BFAD103204A
:103DF000FFF748FC00BFFFF759FC0346182BFAD128
:103E00000020FFF761FC4020FFF772FC4FF4806058
:103E1000FFF782FC4020FFF793FC4020FFF7A4FC53
:103E2000064800F07DFD0F2000F0F4FA0346002B59
:103E300001D000F089FA00BF80BD00BF0090D00320
:103E400080B500AFFFF706FE0320FFF729FE002034
:103E5000FFF710FE0420FFF751FE0920FFF736FEA2
:103E60000C20FFF761FE0220FFF774FE0220FFF72F
:103E700087FEFFF7CBFD00BFFFF7D8FD0346012B00
:103E8000FAD100BF00BF80BD80B594B000AF07F18C
:103E9000400300221A605A609A6007F1280300224A
:103EA0001A605A609A60DA601A615A6107F1180361
:103EB00000221A605A609A60DA603B4600221A605B
:103EC0005A609A60DA601A615A610020FFF796FC26
:103ED0002020FFF76BFE0420FFF784FE0120FFF790
:103EE00081FE07233B6003237B6000233B613B464D
:103EF0001946704800F0CAFB03233B6003237B6034
:103F000000233B613B4619466B4800F0BFFB09228A
:103F100000216A48FFF718FB002200216748FFF7DD
:103F200009FA002200216548FFF7E8FA4FF4807291
:103F300000216248FFF724FA002200215F48FFF7C2
:103F400045FA4FF4806200215C48FFF765FA4FF4B0
:103F5000006200215948FFF785FA4FF40052002112
:103F60005648FFF7A5FA00215448FFF71DFB002132
:103F70005348FFF7A3F900233B640023BB6407F118
:103F8000400319464E4800F055FC4FF4AC63BB6249
:103F90000423FB6200233B6300237B634FF48053C5
:103FA000FB6307F128031946454800F06FFC002326
:103FB000BB610023FB6107F118031946414800F07B
:103FC000F9FB4FF480613E48FFF7E9F83C48FFF702
:103FD0008BF93B48FFF79AF93B4B1B689B093B4A1F
:103FE000A2FB03239A0913469B0013445B001A4665
:103FF000374BA3FB0223DB08FB6402E0FB6C013BB5
:10400000FB64FB6C002BF9D1324A06212C48FFF7E8
:10401000D9F805222F492A48FFF700F940F2FF722C
:104020002C492748FFF726F92B4A0C212448FFF793
:10403000C9F8052228492248FFF7F0F840F2FF723C
:1040400025491F48FFF716F9244A12211C48FFF79B
:10405000B9F8052221491A48FFF7E0F840F2FF724B
:104060001E491748FFF706F91D4A18211448FFF7A3
:10407000A9F805221A491248FFF7D0F840F2FF725A
:1040800017490F48FFF7F6F8164A4FF480710C48AD
:10409000FFF798F8052213490948FFF7BFF840F2E7
:1040A000FF7210490648FFF7E5F800BF5037BD46DC
:1040B00080BD00BF00080258000002580000024006
:1040C000002002400023024008000024632D3E052A
:1040D000CDCCCCCC0004002A0008302E0010603279
:1040E000000021430000524780B590B000AF07F1B7
:1040F000180328220021184601F0DEFD3B4600226D
:104100001A605A609A60DA601A615A612148FFF7B2
:1041100069FB4FF48050FFF781FD0120FFF762FD3E
:10412000E0233B6002237B600023BB600023FB6035
:1041300000233B6105237B613B461946164800F08E
:10414000A5FA0023BB614FF48003FB6107233B62A8
:1041500000237B620023BB624FF08063FB624FF061
:1041600040533B6300237B630023BB630023FB635B
:1041700007F118031946094800F062FF00210748BB
:10418000FFF7B2FD0548FFF7C2FD00BF4037BD464F
:1041900080BD00BF040C0007000002580030014041
:1041A00080B588B000AF07F1100300221A605A6092
:1041B0009A60DA603B1D00221A605A609A601E4BBA
:1041C0004FF080421A601C4B3F225A601A4B00226B
:1041D0009A60194B40F2E732DA60174B00221A61FD
:1041E000154B80229A61144800F0AAFF0346002B69
:1041F00001D000F0A9F84FF480533B6107F11003A0
:1042000019460D4801F08CF90346002B01D000F04F
:104210009BF820237B600023FB603B1D194606486A
:1042200001F0D6FB0346002B01D000F08DF800BF53
:104230002037BD4680BD00BF8C01002480B500AF93
:104240000120FFF7B3FCFEF721FF03460022002107
:104250001846FEF771FF034619460B20FEF742FF92
:104260000B20FEF721FF00BF80BD000080B586B0A7
:1042700000AF3B4600221A605A609A60DA601A6109
:104280005A610420FFF7AEFC8020FFF7ABFC012051
:10429000FFF7A8FC0220FFF7A5FC10211F48FFF73D
:1042A00046FD06211E48FFF750FD10233B60012309
:1042B0007B600023BB600023FB6000233B613B4627
:1042C0001946164800F0E2F906233B6001237B60A3
:1042D0000023BB600023FB6000233B613B46194683
:1042E0000F4800F0D3F94FF4F0533B6000237B609C
:1042F00000233B613B461946084800F0C7F92023DC
:104300003B6000237B6000233B613B461946044829
:1043100000F0BCF900BF1837BD4680BD0000025850
:104320000004025880B582B000AF78607B681B68DB
:10433000044A934201D100F021FE00BF0837BD4678
:1043400080BD00BF0000014080B400AF72B600BF66
:1043500000BFFDE780B400AF00BFFDE780B400AF51
:1043600000BFFDE780B400AF00BFFDE780B400AF41
:1043700000BFFDE780B400AF00BFFDE780B400AF31
:1043800000BFBD465DF8047B7047000080B500AFFC
:10439000024800F0A5FF00BF80BD00BFD801002487
:1043A00080B483B000AF0A4BD3F85431084A43F0CD
:1043B0000203C2F85431064BD3F8543103F0020320
:1043C0007B607B6800BF0C37BD465DF8047B70479F
:1043D0000044025880B485B000AF78607B681B68E9
:1043E000B3F1804F0ED10A4BD3F84831084A43F05D
:1043F0000103C2F84831064BD3F8483103F00103FA
:10440000FB60FB6800BF1437BD465DF8047B704756
:104410000044025880B58EB000AF78607B680F2BE7
:1044200044D800227968192000F044FD192000F0DA
:104430005BFD244A7B681360234BD3F85031224A3A
:1044400043F00103C2F850311F4BD3F8503103F051
:104450000103BB60BB6807F10C0207F110031146B2
:10446000184600F02DFC00F015FC03465B007B6352
:104470007B6B164AA2FB03239B0C013B3B63144B53
:10448000144A1A60124B40F2E732DA60104A3B6B72
:1044900053600F4B00221A610D4B00229A600C48AA
:1044A00000F04EFE0346002B07D101E0012305E09A
:1044B000074800F09DFE034600E001231846383708
:1044C000BD4680BD000000240044025883DE1B432B
:1044D000D80100240000014080B485B000AFF8602E
:1044E000B9607A60FB681968BB6803FB03F2134686
:1044F0005B001344DB4301EA0302BB6803FB03F3E5
:10450000796801FB03F31A43FB681A6000BF143794
:10451000BD465DF8047B704780B485B000AFF8609D
:10452000B9607A60FB685A68BB68DB431A40BB68B5
:10453000796801FB03F31A43FB685A6000BF143724
:10454000BD465DF8047B704780B485B000AFF8606D
:10455000B9607A60FB689968BB6803FB03F2134695
:104560005B001344DB4301EA0302BB6803FB03F374
:10457000796801FB03F31A43FB689A6000BF1437A4
:10458000BD465DF8047B704780B485B000AFF8602D
:10459000B9607A60FB68D968BB6803FB03F2134615
:1045A0005B001344DB4301EA0302BB6803FB03F334
:1045B000796801FB03F31A43FB68DA6000BF143724
:1045C000BD465DF8047B704780B485B000AFF860ED
:1045D000B9607A60FB68196ABB6803FB03F3BA68C9
:1045E00002FB03F3BA6803FB02F213461B019B1A9A
:1045F000DB4301EA0302BB6803FB03F3B96801FB79
:1046000003F3B96801FB03F3796801FB03F31A4371
:10461000FB681A6200BF1437BD465DF8047B704723
:1046200080B485B000AFF860B9607A60FB68596A01
:10463000BB681B0ABA68120A02FB03F3BA68120AC3
:1046400002FB03F3BA68120A03FB02F213461B01D2
:104650009B1ADB4301EA0302BB681B0AB968090A1B
:1046600001FB03F3B968090A01FB03F3B968090AFE
:1046700001FB03F3796801FB03F31A43FB685A62F9
:1046800000BF1437BD465DF8047B704780B588B025
:1046900000AF786039603B681B683B613B6993FA07
:1046A000A3F3FB60FB687B617B69002B01D12023B6
:1046B00003E07B69B3FA83F3DBB2FB6148E03B685C
:1046C0001A680121FB6901FA03F31340BB61BB695E
:1046D000002B3AD03B685B68012B03D03B685B68DA
:1046E000022B0ED13B689B681A46B9697868FFF7C0
:1046F0002BFF3B6819683B68DB681A467868FFF750
:104700000BFF3B681B691A46B9697868FFF73CFFE5
:104710003B685B68022B11D1BB69FF2B07D83B6854
:104720005B691A46B9697868FFF74EFF06E03B6897
:104730005B691A46B9697868FFF772FF3B685B6886
:104740001A46B9697868FFF7C7FEFB690133FB6158
:104750003B681A68FB6922FA03F3002BAFD10023F0
:1047600018462037BD4680BD80B483B000AF786066
:1047700039607B681B6B23F00F023B681A437B6830
:104780001A6300BF0C37BD465DF8047B704780B4E8
:1047900083B000AF78607B689B6803F00103012B56
:1047A00001D1012300E0002318460C37BD465DF817
:1047B000047B704790B585B000AF78603960002306
:1047C000FB731948FFF7E3FF04461848FFF7DFFFC4
:1047D00003462343002B20D13B685B68002B12D09B
:1047E0007B689A68124B13403A6811683A685268BD
:1047F00011433A68926811433A68D2680A431A43EF
:104800007B689A600BE07B689A68094B13403A68B2
:1048100012681A437B689A6001E00123FB73FB7BFB
:1048200018461437BD4690BD0020024000210240CA
:10483000E030C0FF80B584B000AF786039600023FD
:10484000FB737868FFF7A3FF0346002B15D17B6845
:10485000DA680D4B13403A6811683A6892680A4367
:104860001A437B68DA607B681B6923F070423B68FF
:104870005B681A437B681A6101E00123FB73FB7BD1
:1048800018461037BD4680BDE3BFFFFF80B584B03A
:1048900000AF786039600023FB737868FFF777FF1B
:1048A0000346002B32D13B685B68002B15D07B6838
:1048B000DA681A4B13403A6811683A6892681143F3
:1048C0003A68D26811433A68126911433A685269EA
:1048D0000A431A437B68DA6011E07B68DA680F4BA1
:1048E00013403A6811683A68D26811433A6812690D
:1048F00011433A6852690A431A437B68DA603B689D
:104900005B6819467868FFF72FFF01E00123FB730E
:10491000FB7B18461037BD4680BD00BF1CC0F0FFB2
:1049200080B483B000AF7860044A7B68136000BF36
:104930000C37BD465DF8047B704700BF08000024BB
:1049400080B489B000AFB34B1B6903F03803182B58
:1049500000F2558101A252F823F000BFC1490008BE
:10496000FF4B0008FF4B0008FF4B0008FF4B0008FF
:10497000FF4B0008FF4B0008FF4B0008E749000809
:10498000FF4B0008FF4B0008FF4B0008FF4B0008DF
:10499000FF4B0008FF4B0008FF4B0008ED490008E3
:1049A000FF4B0008FF4B0008FF4B0008FF4B0008BF
:1049B000FF4B0008FF4B0008FF4B0008F3490008BD
:1049C000944B1B6803F02003002B09D0914B1B680C
:1049D000DB0803F00303904A22FA03F3BB6111E101
:1049E0008D4BBB610EE18D4BBB610BE18C4BBB6111
:1049F00008E1884B9B6A03F003037B61854B9B6A4C
:104A00001B0903F03F033B61824BDB6A03F00103A8
:104A1000FB60804B5B6BDB08C3F30C03FA6802FBA3
:104A200003F307EE903AF8EE677AC7ED027A3B6936
:104A3000002B00F0E1807B69022B00F083807B6912
:104A4000022B00F2A1807B69002B03D07B69012B34
:104A500056D099E06F4B1B6803F02003002B2DD03C
:104A60006C4B1B68DB0803F003036B4A22FA03F369
:104A70007B607B6807EE903AF8EE676A3B6907EE69
:104A8000903AF8EE677A86EEA77A624B1B6BC3F317
:104A9000080307EE903AF8EE676A97ED026ADFEDD9
:104AA000615AC6EE257A76EEA77AF7EE006A77EEBF
:104AB000A67A67EE277AC7ED077A87E03B6907EEAB
:104AC000903AF8EE677ADFED586A86EEA77A514B96
:104AD0001B6BC3F3080307EE903AF8EE676A97ED95
:104AE000026ADFED505AC6EE257A76EEA77AF7EE27
:104AF000006A77EEA67A67EE277AC7ED077A65E057
:104B00003B6907EE903AF8EE677ADFED486A86EE89
:104B1000A77A404B1B6BC3F3080307EE903AF8EEFD
:104B2000676A97ED026ADFED3F5AC6EE257A76EEA8
:104B3000A77AF7EE006A77EEA67A67EE277AC7EDD6
:104B4000077A43E03B6907EE903AF8EE677ADFEDCB
:104B5000386A86EEA77A2F4B1B6BC3F3080307EE68
:104B6000903AF8EE676A97ED026ADFED2E5AC6EECC
:104B7000257A76EEA77AF7EE006A77EEA67A67EEE8
:104B8000277AC7ED077A21E03B6907EE903AF8EE05
:104B9000677ADFED266A86EEA77A1E4B1B6BC3F39E
:104BA000080307EE903AF8EE676A97ED026ADFEDC8
:104BB0001D5AC6EE257A76EEA77AF7EE006A77EEF2
:104BC000A67A67EE277AC7ED077A00BF114B1B6BF9
:104BD0005B0A03F07F0301333B603B6807EE903ACA
:104BE000B8EE677AD7ED076AC6EE877AFCEEE77A09
:104BF00017EE903ABB6105E00023BB6102E0074B72
:104C0000BB6100BFBB6918462437BD465DF8047B15
:104C1000704700BF004402580090D00300093D00D7
:104C2000002D3101000000460024744C0024744A19
:104C30008096984B80B582B000AFFFF781FE0246A8
:104C4000104B9B691B0A03F00F030F49CB5C03F069
:104C50001F0322FA03F37B600A4B9B6903F00F03E7
:104C6000094AD35C03F01F037A6822FA03F3074A68
:104C70001360074A7B681360044B1B6818460837AB
:104C8000BD4680BD00440258045F00080C000024AB
:104C90000800002480B500AFFFF7CCFF0246064BAA
:104CA000DB691B0A03F007030449CB5C03F01F0315
:104CB00022FA03F3184680BD00440258045F00083E
:104CC00080B483B000AF786039607B683F221A609F
:104CD0001A4B1B6903F007027B685A60174B9B69EC
:104CE00003F470627B689A60144B9B6903F00F02B7
:104CF0007B68DA60114B9B6903F070027B681A6174
:104D00000E4BDB6903F070027B685A610B4BDB6969
:104D100003F4E0627B689A61084B1B6A03F070023F
:104D20007B68DA61064B1B6803F00F023B681A6070
:104D300000BF0C37BD465DF8047B70470044025845
:104D40000020005280B485B000AF78607B6803F02B
:104D50000703FB600B4BDB68BB60BA684FF6FF03D1
:104D60001340BB60FB681A02BB681A43064B13432F
:104D7000BB60044ABB68D36000BF1437BD465DF812
:104D8000047B704700ED00E00000FA0580B400AF3E
:104D9000044BDB681B0A03F007031846BD465DF8A9
:104DA000047B704700ED00E080B483B000AF0346A1
:104DB000FB80B7F90630002B0BDBFB8803F01F02EA
:104DC0000749B7F906305B09012000FA02F241F801
:104DD000232000BF0C37BD465DF8047B704700BF41
:104DE00000E100E080B483B000AF03463960FB808F
:104DF000B7F90630002B0ADB3B68DAB20C49B7F989
:104E000006301201D2B20B4483F800230AE03B685B
:104E1000DAB20849FB8803F00F03043B1201D2B257
:104E20000B441A7600BF0C37BD465DF8047B704713
:104E300000E100E000ED00E080B489B000AFF86070
:104E4000B9607A60FB6803F00703FB61FB69C3F19B
:104E50000703042B28BF0423BB61FB690433062B23
:104E600002D9FB69033B00E000237B614FF0FF3276
:104E7000BB6902FA03F3DA43BB681A407B699A40C4
:104E80004FF0FF317B6901FA03F3D9437B680B4094
:104E9000134318462437BD465DF8047B704780B540
:104EA00082B000AF78607868FFF74CFF00BF08372A
:104EB000BD4680BD80B586B000AF0346B9607A605C
:104EC000FB81FFF763FF78617A68B9687869FFF75B
:104ED000B3FF0246B7F90E3011461846FFF782FFBE
:104EE00000BF1837BD4680BD80B582B000AF034615
:104EF000FB80B7F906301846FFF756FF00BF0837AA
:104F0000BD4680BD80B582B000AF0320FFF7C7FF6C
:104F1000FFF716FD0246154B9B691B0A03F00F03B2
:104F20001349CB5C03F01F0322FA03F37B600F4BA2
:104F30009B6903F00F030E4AD35C03F01F037A68EA
:104F400022FA03F30B4A13600B4A7B6813600F20AD
:104F5000FFF760FA0346002B01D0012302E0FFF7C0
:104F60001FFA002318460837BD4680BD004402588A
:104F7000045F00080C0000240800002480B400AF87
:104F8000064B1B781A46064B1B681344044A1360F1
:104F900000BFBD465DF8047B704700BF04000024DD
:104FA0002402002480B400AF034B1B681846BD46A2
:104FB0005DF8047B704700BF2402002480B483B0F6
:104FC00000AF78607B681B6803F00103012B01D1FF
:104FD000012300E0002318460C37BD465DF8047B32
:104FE000704780B483B000AF786039607B681B681D
:104FF00023F480523B681A437B681A6000BF0C3769
:10500000BD465DF8047B704780B483B000AF786024
:105010007B68DB6803F0805318460C37BD465DF8AB
:10502000047B704780B483B000AF786039607B68E0
:105030003A681A6400BF0C37BD465DF8047B7047C0
:1050400080B586B000AF786039600123FB75786861
:10505000FFF7B4FF0346002B69D17B689A68364B93
:1050600013403A6891693A68126A11433A68926843
:105070000A431A437B689A603B685B693B613B6803
:105080005B68FB603B69B3F1806F18D17868FFF70C
:10509000BBFF0346002B03D1FB68B3F5800F09D09B
:1050A0007868FFF7B1FF0346B3F1805F07D1FB6873
:1050B000002B04D14FF480517868FFF792FF7B6892
:1050C000DA681E4B13403A6851693A68D268114356
:1050D0003A68126911433A68D26911433A685268D2
:1050E00011433A68126802F4C0220A431A437B68EB
:1050F000DA607B681B6823F400623B681B6803F47A
:1051000000631A437B681A603B681B6AB3F5800F23
:1051100005D13B685B6A19467868FFF783FF7B68B7
:105120001B6D23F001027B681A650023FB75FB7D74
:1051300018461837BD4680BDE0FFBF8FFFFF39D846
:1051400080B582B000AF78607B68002B01D101236D
:1051500049E07B6893F83D30DBB2002B06D17B68D9
:10516000002283F83C207868FFF734F97B6802223C
:1051700083F83D207B681A687B6804331946104623
:1051800000F0EEFA7B68012283F848207B68012258
:1051900083F83E207B68012283F83F207B68012250
:1051A00083F840207B68012283F841207B6801223C
:1051B00083F842207B68012283F843207B68012228
:1051C00083F844207B68012283F845207B68012214
:1051D00083F846207B68012283F847207B68012200
:1051E00083F83D20002318460837BD4680BD0000E7
:1051F00080B485B000AF78607B6893F83D30DBB257
:10520000012B01D0012354E07B68022283F83D206A
:105210007B681B68DA687B681B6842F00102DA6011
:105220007B681B68264A934222D07B681B68B3F1D7
:10523000804F1DD07B681B68224A934218D07B6840
:105240001B68214A934213D07B681B681F4A934214
:105250000ED07B681B681E4A934209D07B681B688E
:105260001C4A934204D07B681B681B4A934215D1A9
:105270007B681B689A68194B1340FB60FB68062B20
:1052800015D0FB68B3F5803F11D07B681B681A68A6
:105290007B681B6842F001021A6008E07B681B68AB
:1052A0001A687B681B6842F001021A6000E000BFC8
:1052B000002318461437BD465DF8047B704700BFD5
:1052C000000001400004004000080040000C0040C5
:1052D00000040140001800400040014007000100A8
:1052E00080B582B000AF78607B681B681B6903F0F3
:1052F0000203022B22D17B681B68DB6803F00203E8
:10530000022B1BD17B681B686FF002021A617B685D
:1053100001221A777B681B689B6903F00303002B4B
:1053200003D0786800F0FEF905E0786800F0F0F945
:10533000786800F001FA7B6800221A777B681B68A6
:105340001B6903F00403042B22D17B681B68DB6814
:1053500003F00403042B1BD17B681B686FF004026D
:105360001A617B6802221A777B681B689B6903F4C9
:105370004073002B03D0786800F0D4F905E078681A
:1053800000F0C6F9786800F0D7F97B6800221A7738
:105390007B681B681B6903F00803082B22D17B681C
:1053A0001B68DB6803F00803082B1BD17B681B68B4
:1053B0006FF008021A617B6804221A777B681B6809
:1053C000DB6903F00303002B03D0786800F0AAF92F
:1053D00005E0786800F09CF9786800F0ADF97B682A
:1053E00000221A777B681B681B6903F01003102BDF
:1053F00022D17B681B68DB6803F01003102B1BD1E4
:105400007B681B686FF010021A617B6808221A77AC
:105410007B681B68DB6903F44073002B03D078685A
:1054200000F080F905E0786800F072F9786800F023
:1054300083F97B6800221A777B681B681B6903F07D
:105440000103012B0ED17B681B68DB6803F00103AD
:10545000012B07D17B681B686FF001021A61786825
:10546000FEF760FF7B681B681B6903F08003802BDD
:105470000ED17B681B68DB6803F08003802B07D1AB
:105480007B681B686FF080021A61786800F038FB57
:105490007B681B681B6903F48073B3F5807F0ED1B2
:1054A0007B681B68DB6803F08003802B07D17B6877
:1054B0001B686FF480721A61786800F02BFB7B68C0
:1054C0001B681B6903F04003402B0ED17B681B68EF
:1054D000DB6803F04003402B07D17B681B686FF04B
:1054E00040021A61786800F031F97B681B681B691B
:1054F00003F02003202B0ED17B681B68DB6803F0D0
:105500002003202B07D17B681B686FF020021A61F3
:10551000786800F0EBFA00BF0837BD4680BD000098
:1055200080B584B000AF786039600023FB737B687E
:1055300093F83C30012B01D10223DCE07B6801228F
:1055400083F83C207B68022283F83D207B681B683F
:105550009B68BB60BA686A4B1340BB60BB6823F4AE
:105560007F43BB607B681B68BA689A603B681B68B6
:10557000644A934200F0A980624A934200F2AE80EE
:10558000614A934200F0A1805F4A934200F2A680F4
:105590005E4A934200F099805C4A934200F29E80FA
:1055A000B3F1101F00F09180B3F1101F00F296804C
:1055B000B3F5801F00F08980B3F5801F00F28E8064
:1055C000B3F5005F3ED0B3F5005F00F28780B3F51E
:1055D000805F00F08680B3F5805F7FD8702B1AD093
:1055E000702B7BD8602B50D0602B77D8502B3CD0C1
:1055F000502B73D8402B58D0402B6FD8302B64D011
:10560000302B6BD8202B60D0202B67D8002B5CD0A0
:10561000102B5AD062E07B6818683B6899683B6839
:105620005A683B68DB6800F0B3F97B681B689B68CD
:10563000BB60BB6843F07703BB607B681B68BA68DC
:105640009A604FE07B6818683B6899683B685A68C5
:105650003B68DB6800F09CF97B681B689A687B6894
:105660001B6842F480429A603CE07B6818683B68A3
:1056700059683B68DB681A4600F00CF97B681B68C8
:105680005021184600F066F92CE07B6818683B68EA
:1056900059683B68DB681A4600F02BF97B681B6889
:1056A0006021184600F056F91CE07B6818683B68DA
:1056B00059683B68DB681A4600F0ECF87B681B68A9
:1056C0004021184600F046F90CE07B681A683B68F8
:1056D0001B681946104600F03DF903E00123FB73F7
:1056E00000E000BF7B68012283F83D207B68002238
:1056F00083F83C20FB7B18461037BD4680BD00BFB9
:1057000088FFCEFF40001000300010002000100085
:1057100080B483B000AF786000BF0C37BD465DF841
:10572000047B704780B483B000AF786000BF0C3753
:10573000BD465DF8047B704780B483B000AF7860ED
:1057400000BF0C37BD465DF8047B704780B483B062
:1057500000AF786000BF0C37BD465DF8047B704732
:1057600080B485B000AF786039607B681B68FB60EF
:105770007B68404A934213D07B68B3F1804F0FD0CF
:105780007B683D4A93420BD07B683C4A934207D0EA
:105790007B683B4A934203D07B683A4A934208D1E4
:1057A000FB6823F07003FB603B685B68FA68134397
:1057B000FB607B682F4A93421FD07B68B3F1804F18
:1057C0001BD07B682C4A934217D07B682B4A9342AC
:1057D00013D07B682A4A93420FD07B68294A9342B0
:1057E0000BD07B68284A934207D07B68274A9342B4
:1057F00003D07B68264A934208D1FB6823F44073A8
:10580000FB603B68DB68FA681343FB60FB6823F0CE
:1058100080023B685B691343FB607B68FA681A602F
:105820003B689A687B68DA623B681A687B689A62B0
:105830007B68104A93420FD07B68124A93420BD088
:105840007B68114A934207D07B68104A934203D089
:105850007B680F4A934203D13B681A697B681A63DD
:105860007B6801225A6100BF1437BD465DF8047B96
:10587000704700BF000001400004004000080040E5
:10588000000C004000040140004001400044014081
:105890000048014080B487B000AFF860B9607A601A
:1058A000FB681B6A7B61FB681B6A23F00102FB68D3
:1058B0001A62FB689B693B613B6923F0F0033B6123
:1058C0007B681B013A6913433B617B6923F00A0340
:1058D0007B617A69BB6813437B61FB683A699A61B3
:1058E000FB687A691A6200BF1C37BD465DF8047B0D
:1058F000704780B487B000AFF860B9607A60FB6829
:105900001B6A23F01002FB681A62FB689B697B61CB
:10591000FB681B6A3B617B6923F470437B617B6896
:105920001B037A6913437B613B6923F0A0033B614E
:10593000BB681B013A6913433B61FB687A699A6152
:10594000FB683A691A6200BF1C37BD465DF8047BEC
:105950007047000080B485B000AF786039607B6824
:105960009B68FB60FA68094B1340FB603A68FB6870
:10597000134343F00703FB607B68FA689A6000BF3B
:105980001437BD465DF8047B704700BF8FFFCFFF23
:1059900080B487B000AFF860B9607A603B60FB68A4
:1059A0009B687B617B6923F47F437B613B681A02C0
:1059B0007B681A43BB6813437A6913437B61FB68B6
:1059C0007A699A6000BF1C37BD465DF8047B70475A
:1059D00080B485B000AF786039607B6893F83C3064
:1059E000012B01D102236DE07B68012283F83C206A
:1059F0007B68022283F83D207B681B685B68FB6044
:105A00007B681B689B68BB607B681B68304A93425D
:105A100004D07B681B682F4A934208D1FB6823F4AB
:105A20007003FB603B685B68FA681343FB60FB68CC
:105A300023F07003FB603B681B68FA681343FB604C
:105A40007B681B68FA685A607B681B68204A93422F
:105A500022D07B681B68B3F1804F1DD07B681B6828
:105A60001D4A934218D07B681B681C4A934213D08E
:105A70007B681B681A4A93420ED07B681B68154AE4
:105A8000934209D07B681B68164A934204D07B6816
:105A90001B68154A93420CD1BB6823F08003BB609E
:105AA0003B689B68BA681343BB607B681B68BA6835
:105AB0009A607B68012283F83D207B68002283F88E
:105AC0003C20002318461437BD465DF8047B704720
:105AD00000000140000401400004004000080040B4
