:020000040800F2
:1000000000001024B5550008613F0008693F000852
:10001000713F0008793F0008813F000800000000A0
:10002000000000000000000000000000552B000848
:10003000893F000800000000112B0008412A000839
:100040000956000809560008095600080956000814
:100050000956000809560008095600080956000804
:10006000095600080956000809560008973F00087D
:1000700009560008095600080956000809560008E4
:100080000956000809560008B90800080956000872
:1000900009560008095600080956000809560008C4
:1000A00009560008A53F000809560008095600082F
:1000B00009560008095600080956000809560008A4
:1000C0000956000809560008095600080956000894
:1000D0000956000809560008095600080956000884
:1000E0000956000809560008095600080956000874
:1000F0000956000809560008095600080956000864
:100100000956000809560008095600080956000853
:100110000956000809560008095600080956000843
:100120000956000809560008095600080956000833
:1001300009560008000000000000000009560008F1
:100140000956000809560008095600080956000813
:100150000956000809560008095600080956000803
:1001600009560008095600080956000809560008F3
:10017000095600080956000809560008000000004A
:1001800009560008095600080956000809560008D3
:1001900009560008095600080956000809560008C3
:1001A00009560008095600080956000809560008B3
:1001B00009560008095600080956000809560008A3
:1001C0000956000809560008000000000000000061
:1001D00000000000000000000956000800000000B8
:1001E000000000000000000000000000000000000F
:1001F0000000000000000000095600080956000831
:1002000009560008095600080000000009560008B9
:100210000956000809560008095600080956000842
:100220000956000809560008095600080000000099
:100230000956000809560008000000000956000889
:100240000956000809560008095600080956000812
:100250000956000809560008095600080956000802
:1002600009560008095600080956000809560008F2
:100270000956000809560008095600080000000049
:100280000956000809560008000000000956000839
:100290000000000009560008095600080000000090
:0C02A00000000000095600080956000884
:1002B0000348044B834202D0034B03B118477047F5
:1002C0001400002414000024000000000548064B20
:1002D0001B1AD90F01EBA301491002D0034B03B144
:1002E0001847704714000024140000240000000088
:1002F00010B5064C237843B9FFF7DAFF044B13B16E
:100300000448AFF300800123237010BD18000024BF
:10031000000000001C58000808B5054B1BB105493A
:100320000548AFF30080BDE80840FFF7CFBF00BF2E
:10033000000000001C0000241C58000880B487B096
:1003400000AF786039603B68C3F31303002B07D11B
:100350003B689B0E03F01F03012202FA03F315E032
:100360003B683B613B6993FAA3F3FB60FB687B61ED
:100370007B69002B01D1202303E07B69B3FA83F36F
:10038000DBB203F01F03012202FA03F37A68D26999
:100390001A437B68DA6100BF1C37BD465DF8047BF9
:1003A000704780B483B000AF78607B68DB6803F48B
:1003B0004063002B01D1012300E0002318460C37D5
:1003C000BD465DF8047B704780B483B000AF7860B1
:1003D00039607B681B6B23F00F023B681A437B6814
:1003E0001A6300BF0C37BD465DF8047B704780B4CC
:1003F00085B000AF786039607B6830331A463B685F
:100400001B0A9B0003F00C031344FB60FB681A6893
:100410003B6803F01F031F2101FA03F31A403B68F6
:1004200003F01F0322FA03F39B0618461437BD4658
:100430005DF8047B704780B483B000AF78603960AA
:100440007B68DB6823F003023B681A437B68DA6051
:1004500000BF0C37BD465DF8047B704780B483B0A5
:1004600000AF78607B68DB6C03F4C073002B01D1B4
:10047000012300E0002318460C37BD465DF8047BDD
:10048000704780B483B000AF786039607B68DA6C05
:100490003B6803F01F031F2101FA03F31A403B6876
:1004A00003F01F0322FA03F39B0618460C37BD46E0
:1004B0005DF8047B7047000080B483B000AF7860C3
:1004C0007B689A68054B134043F001027B689A6091
:1004D00000BF0C37BD465DF8047B7047C0FFFF7F4F
:1004E00080B483B000AF78607B689A68054B134096
:1004F00043F002027B689A6000BF0C37BD465DF88E
:10050000047B7047C0FFFF7F80B483B000AF78608A
:100510007B689B6803F00103012B01D1012300E0FC
:10052000002318460C37BD465DF8047B7047000079
:1005300080B485B000AFF860B9607A60FB689A68F3
:10054000094B1340BA6802F480317A6802F08042A5
:100550000A43134343F00042FB689A6000BF14371C
:10056000BD465DF8047B7047C0FFFE3F80B483B09A
:1005700000AF78607B689B6803F00043B3F1004FE5
:1005800001D1012300E0002318460C37BD465DF879
:10059000047B704780B483B000AF78607B689A6852
:1005A000054B134043F004027B689A6000BF0C3790
:1005B000BD465DF8047B7047C0FFFF7F80B483B009
:1005C00000AF78607B681B6C18460C37BD465DF841
:1005D000047B704780B483B000AF78607B689A6812
:1005E000054B134043F008027B689A6000BF0C374C
:1005F000BD465DF8047B7047C0FFFF7F80B483B0C9
:1006000000AF78607B681B6803F00803082B01D1FA
:10061000012300E0002318460C37BD465DF8047B3B
:10062000704780B483B000AF78607B681B6803F0CC
:100630001003102B01D1012300E0002318460C37D2
:10064000BD465DF8047B704780B483B000AF78602E
:100650007B6808221A6000BF0C37BD465DF8047B3A
:10066000704780B483B000AF78607B6810221A6056
:1006700000BF0C37BD465DF8047B704780B483B083
:1006800000AF78607B685B6843F008027B685A6063
:1006900000BF0C37BD465DF8047B704780B483B063
:1006A00000AF78607B685B6843F040027B685A600B
:1006B00000BF0C37BD465DF8047B704780B483B043
:1006C00000AF78607B685B6823F008027B685A6043
:1006D00000BF0C37BD465DF8047B704780B483B023
:1006E00000AF78607B685B6823F010027B685A601B
:1006F00000BF0C37BD465DF8047B704780B483B003
:1007000000AF78607B685B6823F040027B685A60CA
:1007100000BF0C37BD465DF8047B704780B483B0E2
:1007200000AF78607B685B6823F080027B685A606A
:1007300000BF0C37BD465DF8047B704780B483B0C2
:1007400000AF78607B685B6803F01003102B01D169
:10075000012300E0002318460C37BD465DF8047BFA
:10076000704780B483B000AF78607B685B6803F04B
:100770008003802B01D1012300E0002318460C37B1
:10078000BD465DF8047B704780B584B000AF7860EB
:100790000123FB817B681B691846FFF702FE0346B5
:1007A000002B2FD07B685B7ADBB2022B11D07B68E9
:1007B0005B7ADBB2042B0CD07B685B7ADBB2082B54
:1007C00007D07B681B691846FFF718FF0346012B0B
:1007D00018D1786800F034F80346002B12D17B68FA
:1007E0005B7ADBB2082B03D17B6801225A7202E0EC
:1007F0007B6820225A727B681B691846FFF7CAFE85
:100800000023FB81FB8918461037BD4680BD80B4AC
:1008100085B000AFF860B9607A603B6000BF143704
:10082000BD465DF8047B704780B485B000AFF860CA
:10083000B9607A6000BF1437BD465DF8047B70472D
:1008400080B582B000AF78607B681B691846FFF7FF
:10085000E8FE0346DBB2012B07D17B681B69184613
:10086000FFF7FFFE7B6810225A727B685B7ADBB26F
:10087000102B0CBF01230023DBB218460837BD46FE
:1008800080BD80B584B000AF78607B681B69184676
:10089000FFF7B4FE0346FB73FB7B012B07D17B689C
:1008A0001B691846FFF7D0FE7B6802225A72FB7B59
:1008B00018461037BD4680BD80B500AF0248FFF72F
:1008C000E0FF00BF80BD00BF3400002480B582B0CF
:1008D00000AF78600B46FB701346BB70FB78002BB3
:1008E00000F0CE8006217868FFF781FD03461946A7
:1008F0007868FFF723FDFB78012B40F2C1800C21C3
:100900007868FFF774FD034619467868FFF716FD0F
:10091000FB78022B40F2B48012217868FFF767FD64
:10092000034619467868FFF709FDFB78032B40F270
:10093000A78018217868FFF75AFD034619467868A2
:10094000FFF7FCFCFB78042B40F29A804FF4807197
:100950007868FFF74CFD034619467868FFF7EEFC10
:10096000FB78052B40F28C804FF483717868FFF799
:100970003EFD034619467868FFF7E0FCFB78062B3E
:100980007ED94FF486717868FFF731FD034619462A
:100990007868FFF7D3FCFB78072B71D94FF4897186
:1009A0007868FFF724FD034619467868FFF7C6FC10
:1009B000FB78082B64D94FF48C717868FFF717FD2A
:1009C000034619467868FFF7B9FCFB78092B57D91D
:1009D0004FF400717868FFF70AFD034619467868FE
:1009E000FFF7ACFCFB780A2B4AD940F20621786865
:1009F000FFF7FDFC034619467868FFF79FFCFB787C
:100A00000B2B3DD94FF403717868FFF7F0FC0346D8
:100A100019467868FFF792FCFB780C2B30D940F22E
:100A200012217868FFF7E3FC034619467868FFF760
:100A300085FCFB780D2B23D94FF406717868FFF7FE
:100A4000D6FC034619467868FFF778FCFB780E2B36
:100A500016D94FF440717868FFF7C9FC0346194670
:100A60007868FFF76BFCFB78102B09D140F2063158
:100A70007868FFF7BCFC034619467868FFF75EFC10
:100A8000BB78002B2FD009217868FFF7FAFC0346CA
:100A900019467868FFF752FCBB78012B23D940F246
:100AA0000F117868FFF7EDFC034619467868FFF7E9
:100AB00045FCBB78022B16D940F215217868FFF768
:100AC000E0FC034619467868FFF738FCBB78032B37
:100AD00009D940F21B317868FFF7D3FC0346194669
:100AE0007868FFF72BFC00BF0837BD4680BD80B596
:100AF00082B000AF78600B46FB70FB78012B0DD104
:100B00007B681B691846FFF74CFC0346012B12D08B
:100B10007B681B691846FFF73DFD0CE07B681B698D
:100B20001846FFF79BFC0346012B04D07B681B692A
:100B30001846FFF74FFD00BF0837BD4680BD0000D7
:100B400090B589B002AFF860084611461A460346D0
:100B50007B810B463B811346FB8000237B61FB6856
:100B60001B693C4A934201D13B4B7B617B69002B63
:100B70006BD0FB681A697B691A617B690022DA71A4
:100B8000FB88012B61D03B89002B47D07B695B7AC6
:100B9000DBB2082B42D0FB68DA687B69DA60FB685D
:100BA0001A687B691A60FB685A697B695A61FB683D
:100BB0009A797B699A71FB681A797B691A717B69EA
:100BC0001B69B96A1846FFF7FFFB7B89012B21D00F
:100BD0007B89042B16D17B691B6903211846FFF71B
:100BE0002AFC7B6918697B6959697B699B791C467A
:100BF0007B69DA687B691B68009313462246FFF71E
:100C000006FE07E07B89022B04D17B691B6918462D
:100C1000FFF734FD7B6908225A7216E03B89002BEE
:100C200013D17B699B7ADBB2082B0ED0FB685A7913
:100C30007B695A717B89022B04D17B691B69184639
:100C4000FFF72CFD7B6908229A727B6918461C37D6
:100C5000BD4690BD002002403400002480B582B023
:100C600000AF78607B681B691846FFF74DFC0346B0
:100C7000002B04D17B681B691846FFF71DFC00BFE1
:100C80000837BD4680BD90B587B000AFF8600B4611
:100C90007A607B810123FB82FB681B69002B64D097
:100CA0007B89012B05D1F868FFF76EFD0346FB82B7
:100CB0005BE07B89042B2BD1FB681B691846FFF78F
:100CC00070FB0346002B50D0FB6801225A72FB6870
:100CD0001B691846FFF75EFC00BFFB685B7ADBB25E
:100CE000022BFAD1FB681969FB681B791A466FF071
:100CF000404313449B007A68D4180846FFF75EFC13
:100D000003462360FB6808225A720023FB822CE012
:100D10007B89022B29D1FB685B7ADBB2202B09D0BF
:100D2000FB685B7ADBB2022B04D0FB685B7ADBB238
:100D3000102B1AD1F868FFF783FD0346002B01D171
:100D40000023FB82FB6808225A72FB681969FB6862
:100D50001B791A466FF0404313449B007A68D418FD
:100D60000846FFF72BFC03462360FB8A18461C3716
:100D7000BD4690BD80B582B000AF78600B467B80E9
:100D800013463B807B681B691846FFF7BDFB034693
:100D9000002B04D07B681B691846FFF7A1FB7B681A
:100DA0001B691846FFF7DDFC0346002B04D07B6867
:100DB0001B691846FFF7B2FC7B681B691846FFF7F2
:100DC000BDFC0346002B04D07B681B691846FFF767
:100DD00085FC3B88002B32D07B88012B14D07B888C
:100DE000022B05D17B681B691846FFF767FC0BE0F7
:100DF0007B88042B08D17B6818697B6859697B68FC
:100E00009B791A46FFF710FD7B680022DA607B6849
:100E100000221A607B6800225A617B6800229A7166
:100E20007B6800221A717B6840225A727B681A69BB
:100E30007B681B7919461046FFF7C6FA0DE07B6800
:100E400000225A717B6840229A727B88022B04D15F
:100E50007B681B691846FFF751FC00BF0837BD4689
:100E600080BD000080B586B000AFF860B960134661
:100E7000FB71FB681B691846FFF746FB0346012B15
:100E800004D1FB681B691846FFF72AFBFB79002B8E
:100E900011D1FB681B6940F2FF72B9681846FFF771
:100EA00047FB00BFFB681B691846FFF75FFB034663
:100EB000012BF7D034E0FB79012B10D1FB681B69C3
:100EC0001E4AB9681846FFF733FB00BFFB681B6971
:100ED0001846FFF74BFB0346012BF7D020E0FB68D9
:100EE0001B6940F2FF72B9681846FFF721FB00BF8B
:100EF000FB681B691846FFF739FB0346012BF7D047
:100F0000FB681B690D4AB9681846FFF711FB00BF63
:100F1000FB681B691846FFF729FB0346012BF7D036
:100F200004237B6102E07B69013B7B617B69002BD1
:100F3000F9D100BF00BF1837BD4680BD0000FF4794
:100F400080B483B000AF78607B681B6843F0010217
:100F50007B681A6000BF0C37BD465DF8047B7047A4
:100F600080B483B000AF78607B681B6823F0010217
:100F70007B681A6000BF0C37BD465DF8047B704784
:100F800080B483B000AF78607B681B6803F0010316
:100F9000012B01D1012300E0002318460C37BD4688
:100FA0005DF8047B704780B483B000AF78607B68E5
:100FB000DB6803F4800318460C37BD465DF8047BFC
:100FC000704780B483B000AF78607B681B6843F4DF
:100FD00080627B681A6000BF0C37BD465DF8047BF9
:100FE000704780B483B000AF78607B681B6843F4BF
:100FF00000727B681A6000BF0C37BD465DF8047B49
:10100000704780B483B000AF786039607B68DB687C
:1010100023F080723B681A437B68DA6000BF0C37AC
:10102000BD465DF8047B704780B483B000AF786044
:101030007B68DB6803F0807318460C37BD465DF8AB
:10104000047B704780B483B000AF786039607B6800
:10105000DB6823F000723B681A437B68DA6000BFEC
:101060000C37BD465DF8047B704780B483B000AF99
:1010700078607B68DB6803F0007318460C37BD4668
:101080005DF8047B704780B485B000AF78607B6802
:101090001B6803F40063FB607B68DB6803F4C02318
:1010A000BB60FA68BB68134318461437BD465DF849
:1010B000047B704780B483B000AF786039607B6890
:1010C0009B6823F01F023B681A437B689A6000BF4D
:1010D0000C37BD465DF8047B704780B483B000AF29
:1010E00078607B689B6803F01F0318460C37BD4689
:1010F0005DF8047B704780B483B000AF78607B6894
:101100005B6903F00103012B01D1012300E00023FF
:1011100018460C37BD465DF8047B704780B483B039
:1011200000AF78607B685B6903F00803082B01D18E
:10113000012300E0002318460C37BD465DF8047B10
:10114000704780B483B000AF78607B685B6903F45C
:101150008053B3F5805F01D1012300E000231846DE
:101160000C37BD465DF8047B704780B483B000AF98
:1011700078607B685B6903F40043B3F5004F01D1ED
:10118000012300E0002318460C37BD465DF8047BC0
:10119000704780B483B000AF78607B685B6903F40C
:1011A000C04318460C37BD465DF8047B704780B4D9
:1011B00083B000AF78607B6830331B78DBB21846B1
:1011C0000C37BD465DF8047B704780B582B000AF38
:1011D00078607868FFF7D4FE0346002B54D0786817
:1011E000FFF7E1FE0346B3F5800F4AD17868FFF7B9
:1011F0004AFF0346B3F5C02F1CD17868FFF7E1FE24
:1012000002E07868FFF7D3FF7868FFF7AEFF034688
:10121000002BF6D17868FFF7BCFF0346002BF0D116
:101220007868FFF768FF0346002BEAD17868FFF77C
:1012300097FE29E000BF7868FFF783FF0346012B84
:1012400009D07868FFF76AFF0346012BF3D102E06B
:101250007868FFF7ACFF7868FFF787FF0346002B3D
:10126000F6D17868FFF795FF0346002BF0D1786838
:10127000FFF741FF0346002BEAD17868FFF770FEC5
:1012800002E07868FFF76CFE00BF0837BD4680BDFE
:1012900080B584B000AF78607B68002B0CD07B6891
:1012A000BB60BB685B691A4A934202D1194BFB6071
:1012B00004E00023FB6001E00023FB60FB68002BDF
:1012C00020D0BB685A69FB685A61FB685B691846A5
:1012D000FFF7D9FE0346B3F5C02F0ED1FB685B695B
:1012E0001846FFF760FE0346B3F5800F05D1FB6893
:1012F0005B691846FFF734FE04E0FB685B6918463B
:10130000FFF71EFEFB6818461037BD4680BD00BFC4
:10131000003001405000002480B586B000AFF86076
:101320007A601A460B467B8113467B727B689BB2C0
:101330001B0AFB827B89FA6813441B7A002B0BD0B3
:10134000FB681A887B7A9BB29A4205D1FB685B687E
:101350007A689A4200F0D4807B7A9AB2FB681A804D
:10136000FB687A685A60FB685B691846FFF72DFFD7
:10137000FB681B88002B1ED1FB685B691846FFF7D2
:1013800053FE0346002B05D0FB685B69002118461D
:10139000FFF737FEFB685B691846FFF766FE0346FA
:1013A000B3F1007F6BD0FB685B694FF000711846AA
:1013B000FFF748FE63E0FB681B88012B20D1FB6828
:1013C0005B691846FFF730FE0346B3F1807F06D015
:1013D000FB685B694FF080711846FFF712FEFB68EF
:1013E0005B691846FFF741FE0346B3F1007F46D024
:1013F000FB685B694FF000711846FFF723FE3EE083
:10140000FB681B88022B1CD1FB685B691846FFF741
:101410000BFE0346002B05D0FB685B6900211846D4
:10142000FFF7EFFDFB685B691846FFF71EFE0346FA
:10143000002B24D0FB685B6900211846FFF702FEF1
:101440001DE0FB685B691846FFF7EEFD0346B3F14C
:10145000807F06D0FB685B694FF080711846FFF70C
:10146000D0FDFB685B691846FFF7FFFD0346002BC4
:1014700005D0FB685B6900211846FFF7E3FDFB68B8
:101480005B691846FFF729FE02467B68934207D046
:10149000FB685A697B681B0A19461046FFF70AFE6B
:1014A000FB685B691846FFF7EEFD0346B3F5C02FF6
:1014B0000ED1FB685B691846FFF775FD0346B3F56F
:1014C000800F05D1FB685B691846FFF77EFE12E0CE
:1014D000FB685B691846FFF733FDFB685B691846DC
:1014E000FFF761FD0346B3F5800F04D1FB685B692C
:1014F0001846FFF776FD7B89FA68134401221A72B9
:10150000002318461837BD4680BD80B485B000AFB3
:10151000F860B9607A603B6000BF1437BD465DF883
:10152000047B704780B483B000AF78607B681B6831
:1015300043F001027B681A6000BF0C37BD465DF8BE
:10154000047B704780B483B000AF78607B681B6811
:1015500003F00103012B01D1012300E00023184611
:101560000C37BD465DF8047B704780B483B000AF94
:1015700078607B685B6903F00203022B01D10123D1
:1015800000E0002318460C37BD465DF8047B704729
:1015900080B483B000AF78607B685B6903F400437C
:1015A000B3F5004F01D1012300E0002318460C37AA
:1015B000BD465DF8047B704780B483B000AF7860AF
:1015C0007B685B6903F4C04318460C37BD465DF881
:1015D000047B704780B483B000AF78607B683033A1
:1015E0001B78DBB218460C37BD465DF8047B7047AC
:1015F00080B483B000AF78607B681B6B9BB21846E9
:101600000C37BD465DF8047B704780B483B000AFF3
:1016100078607B681B6B18460C37BD465DF8047B11
:10162000704780B483B000AF78600B46FB707B6876
:101630002033FA781A7000BF0C37BD465DF8047B82
:10164000704780B485B000AF78600B467B807B68C4
:101650002033FB60FB687A881A8000BF1437BD46D0
:101660005DF8047B704780B483B000AF7860396068
:101670007B683A681A6200BF0C37BD465DF8047B90
:10168000704780B483B000AF78607B681B6843F01C
:1016900001027B681A6000BF0C37BD465DF8047B11
:1016A000704780B483B000AF78607B681B691846D0
:1016B0000C37BD465DF8047B704780B483B000AF43
:1016C000786039607B683A689A6100BF0C37BD4624
:1016D0005DF8047B704780B483B000AF78603960F8
:1016E0003B681A047B689A6100BF0C37BD465DF801
:1016F000047B704790B58FB000AFF860B9607A6036
:101700007B8000237B860023FB6203F00FFDF862E1
:1017100001233B86B7F84C30002B01D100233B65F9
:10172000FB685B691846FFF70DFF0346002B04D1E9
:10173000FB685B691846FFF7F5FE7B88DBB2002B80
:101740006CD17B68BB61BB687B610023FB86002397
:10175000BB865AE0FB685B691846FFF706FF034645
:10176000012B15D13B8E012B12D1FB8EBA6C9A4204
:101770000ED9FB685869FB8E7A6913441B781946A9
:10178000FFF74FFFFB8E0133FB8600233B860AE009
:101790000121F86A01F0CEF802463B6D934202D275
:1017A00001237B8620E1FB685B691846FFF7F0FEAA
:1017B0000346012B07D0FB685B691846FFF7FCFE68
:1017C0000346002B16D0BB8EBA6C9A4212D93B8EC0
:1017D000002B0FD1FB685969BB8EBA69D418084633
:1017E000FFF7F8FE03462370BB8E0133BB8601234F
:1017F0003B860AE00121F86A01F09CF802463B6D45
:10180000934202D201237B86EEE0FB8EBA6C9A42B1
:10181000A0D8BB8EBA6C9A429CD8E5E07B88DBB23C
:10182000012B6ED17B683B62BB68FB610023FB86AA
:101830000023BB865CE0FB685B691846FFF795FEFA
:101840000346012B16D13B8E012B13D1FB8EBA6CB4
:101850009A420FD9FB685869FB8E5B00FA69134402
:101860001B881946FFF7EDFEFB8E0133FB86002334
:101870003B860AE00121F86A01F05CF802463B6D04
:10188000934202D201237B86AEE0FB685B69184677
:10189000FFF77EFE0346012B07D0FB685B69184605
:1018A000FFF78AFE0346002B17D0BB8EBA6C9A4214
:1018B00013D93B8E002B10D1FB685969BB8E5B009E
:1018C0003A6AD4180846FFF793FE03462380BB8E7E
:1018D0000133BB8601233B860AE00121F86A01F04F
:1018E00029F802463B6D934202D201237B867BE0BE
:1018F000FB8EBA6C9A429ED8BB8EBA6C9A429AD82A
:1019000072E07B88DBB2022B6DD17B68BB62BB6867
:101910007B620023FB860023BB865CE0FB685B697F
:101920001846FFF722FE0346012B16D13B8E012BF2
:1019300013D1FB8EBA6C9A420FD9FB685869FB8EA3
:101940009B007A6A13441B681946FFF78CFEFB8ED6
:101950000133FB8600233B860AE00121F86A00F090
:10196000E9FF02463B6D934202D201237B863BE0B6
:10197000FB685B691846FFF70BFE0346012B07D097
:10198000FB685B691846FFF717FE0346002B17D06C
:10199000BB8EBA6C9A4213D93B8E002B10D1FB68D8
:1019A0005969BB8E9B00BA6AD4180846FFF72DFE12
:1019B00003462360BB8E0133BB8601233B860AE0CE
:1019C0000121F86A00F0B6FF02463B6D934202D255
:1019D00001237B8608E0FB8EBA6C9A429ED8BB8EB0
:1019E000BA6C9A429AD800BF7B8EDBB218463C375D
:1019F000BD4690BD80B586B000AF87ED030AB860E4
:101A00007960BB68D3ED007A97ED037AB4EEE77A9C
:101A1000F1EE10FA02D800237B613AE07B689B006C
:101A2000BA681344D3ED007A97ED037AB4EEE77AFF
:101A3000F1EE10FA2BD57B685B087A681946B86816
:101A400097ED030A00F02AF878617A697B689A4278
:101A50001FD27B6901339B00BA68134493ED007A6F
:101A6000D7ED037A37EE677A7B699B00BA68134437
:101A7000D3ED007AD7ED036A76EEE77AB4EEE77A33
:101A8000F1EE10FA05D87B6901337B6101E07B68D8
:101A90007B617B6918461837BD4680BD80B489B02C
:101AA00000AF87ED030AB86079603A607B68FB613C
:101AB0000023BB613B687B6116E0FB699B00BA6851
:101AC0001344D3ED007A97ED037AB4EEE77AF1EEA2
:101AD00010FA02D5FB697B6101E0FB69BB617A69A1
:101AE000BB6913445B08FB617A69BB69D31A012B9C
:101AF000E3D8BB6918462437BD465DF8047B7047C0
:101B000080B588B000AF78607B6800221A707B686F
:101B100001221A747B6801225A600C4BFB6107F1A9
:101B200008031846FFF7B4FB02467B68DA607B685F
:101B3000D86802234FF4E0620021FFF7EDFB7B68D9
:101B400001221A7200BF2037BD4680BD003001401F
:101B500080B588B004AF03463960FB713B68D86834
:101B600002234FF4E0620021FFF7D6FB0346FB722D
:101B7000FB7A002B17D10E4BFB601021F868FFF7A2
:101B8000AAFD3B68D86807F10B02F91D0A230293EE
:101B900001230193012300930023FFF7ABFD1021E4
:101BA000F868FFF78AFD00BF1037BD4680BD00BF53
:101BB0000000025880B586B002AF78607B681B7861
:101BC000002B16D17B6801221A707B685B68012BA1
:101BD0000FD17B681B7A002B0BD04FF0FF33FB60DB
:101BE0007B68D86804230093FB68FA68F968FFF7FC
:101BF0008CFC00BF1037BD4680BD000080B588B0AA
:101C000000AF78607B6800221A707B6801221A742A
:101C10007B6801225A600C4BFB6107F108031846F0
:101C2000FFF736FB02467B68DA607B68D8680223E0
:101C30004FF4E0620021FFF76FFB7B6801221A720C
:101C400000BF2037BD4680BD0030014080B58AB05E
:101C500004AF786039603B68D86802234FF4E062D3
:101C60000021FFF759FB0346FB75FB7D002B17D1C5
:101C70000D4B3B6110213869FFF72DFD3B68D8689B
:101C800007F10C020A23029301230193032300931B
:101C900000237968FFF72EFD10213869FFF70DFD4D
:101CA00000BF1837BD4680BD0000025880B586B021
:101CB00002AF78607B681B78002B16D17B6801220D
:101CC0001A707B685B68012B0FD17B681B7A002B35
:101CD0000BD04FF0FF33FB607B68D8680423009380
:101CE000FB68FA68F968FFF710FC00BF1037BD46C3
:101CF00080BD00000000000080B487B000AF87ED19
:101D0000050A034687ED021B79603A60FB743B6865
:101D10009B7A002B08D13B68FA7C1A723B6801223F
:101D20009A723B68FA7C5A72D7ED057AB7EEE77A79
:101D30009FED1F6BB4EEC67BF1EE10FA04D53B6845
:101D40001A7A7B681A702BE03B685B7AFA7C9A42BD
:101D50000AD13B6893ED007BB7EE006B37EE067B54
:101D60003B6883ED007B09E03B68FA7C5A72396876
:101D70004FF000024FF00003C1E900233B6893EDF0
:101D8000007B97ED026BB4EEC76BF1EE10FA03D84F
:101D90003B685A7A3B681A723B681A7A7B681A70F9
:101DA00000BF1C37BD465DF8047B7047AFF3008071
:101DB000333333333333C33F80B58CB002AF7860F5
:101DC0007B6800221A727B6801225A600023BB6183
:101DD00000237B741A4BFB6100233B620023BB741E
:101DE000002387F82430012387F825300523FB6082
:101DF00005233B7407F10C00042300930223012206
:101E00000221FEF79DFE02467B68DA607B68DB6894
:101E1000022200211846FFF725F87B68DB68184688
:101E2000FEF71CFF7B68DB6801211846FEF75FFEAA
:101E30007B6801221A7200BF2837BD4680BD00BFF3
:101E4000002002400000000080B52DED028BB0B0F4
:101E500004AFB54BDB6807F12C0202211846FEF7F0
:101E600012FF0023C7F8AC301DE0D7F8AC309B0060
:101E7000A83307F10802134453F8843C07EE903A64
:101E8000F8EE677A9FEDA97A67EE877AA84AD7F8C5
:101E9000AC3006339B001344C3ED007AD7F8AC3066
:101EA0000133C7F8AC30D7F8AC30042BDDDDA148E6
:101EB000FFF7F7FBC7F8A800D7F8A83003F40063D2
:101EC000002B0CBF01230023DBB21A46984B83F88A
:101ED0002F20D7F8A83003F48053002B0CBF012328
:101EE0000023DBB21A46924B83F83020D7F8A83093
:101EF00003F48063002B0CBF01230023DBB21A46DE
:101F00008B4B83F83120D7F8A83003F40073002BF3
:101F10000CBF01230023DBB21A46854B83F8322025
:101F2000834BD3ED087A0F218348B0EE670AFFF7A1
:101F300061FD0346804A134493F84C3087F89E3085
:101F4000794B93F84730002B0DD1774A97F89E30A4
:101F500082F84530744B012283F84720724A97F883
:101F60009E3082F84630724BD3ED087AB7EEE77AAE
:101F70009FED696BB4EEC67BF1EE10FA06D56A4BA5
:101F800093F845206A4B83F82E2033E0664B93F894
:101F9000463097F89E209A420AD1634B93ED0E7B10
:101FA000B7EE006B37EE067B5F4B83ED0E7B0BE0ED
:101FB0005D4A97F89E3082F846305B494FF0000248
:101FC0004FF00003C1E90E23574B93ED0E7B9FEDBD
:101FD000546BB4EEC67BF1EE10FA05DB524B93F86E
:101FE0004620514B83F845204F4B93F84520504BEA
:101FF00083F82E204E4B93ED068A4D4BD3ED067A97
:102000000F214D48B0EE670AFFF7F4FC03464A4A39
:10201000134493F84C30494A49499FED411B1846F7
:10202000B0EE480AFFF768FE414B93ED078A404B3C
:10203000D3ED077A0F214048B0EE670AFFF7DAFCCC
:1020400003463D4A134493F84C303E4A3E499FEDC7
:10205000341B1846B0EE480AFFF74EFE344B40F2F0
:10206000FB125A60324B06225A70314B00221A7012
:102070002F4B00229A702E4B00221A742C4B0022F8
:102080005A742B4B00229A74294B0022DA74284B85
:1020900000221A75264B00225A75254B00229A758C
:1020A000234B0022DA750023C7F89830204B93F8B1
:1020B0002F30C7F89430D7F89430C7F89830D7F855
:1020C0009830012B03D9012387F8A73003E0D7F814
:1020D000983087F8A730164B1B7C5AB297F9A73077
:1020E00003F001035BB213435BB2DAB2104B1A7414
:1020F0000023C7F890300E4B93F83030C7F88C307F
:10210000D7F88C30C7F89030D7F89030012B1DD914
:10211000012387F8A6301DE0333333333333C33F15
:102120000000000000004940A0000024063453389D
:1021300068000024000002583C580008E800002411
:1021400094000024F800002495000024D7F8903073
:1021500087F8A630B34B1B7C5AB297F9A6305B00C8
:102160005BB203F002035BB213435BB2DAB2AD4B76
:102170001A740023C7F88830AA4B93F83130C7F897
:102180008430D7F88430C7F88830D7F88830012BEE
:1021900003D9012387F8A53003E0D7F8883087F802
:1021A000A530A04B1B7C5AB297F9A5309B005BB2BF
:1021B00003F004035BB213435BB2DAB2994B1A74B7
:1021C0000023C7F88030974B93F83230FB67FB6FE2
:1021D000C7F88030D7F88030012B03D9012387F866
:1021E000A43003E0D7F8803087F8A4308D4B1B7CF7
:1021F0005AB297F9A430DB005BB203F008035BB27C
:1022000013435BB2DAB2874B1A740023BB67854B6A
:1022100093F82E307B677B6F013B7B677B6FBB67DF
:10222000BB6F0F2B03D90F2387F8A33002E0BB6FDE
:1022300087F8A3307B4B5A7C97F8A3301B01DBB2A5
:102240001343DAB2774B5A7400233B67754B93F80C
:102250002C30FB66FB6E013BFB66FB6E3B673B6F06
:102260000F2B03D90F2387F8A23002E03B6F87F8CA
:10227000A2306C4B1A7C97F8A2301B01DBB21343DF
:10228000DAB2684B1A740023BB66664B93F82D30A4
:102290007B667B6E013B7B667B6EBB66BB6E0F2BEA
:1022A00003D90F2387F8A13002E0BB6E87F8A13075
:1022B0005C4B5B7C5AB297F9A13003F00F035BB221
:1022C00013435BB2DAB2574B5A744FF000033B66CC
:1022D000544B5B6AFB65D7ED177A9FED537A67EE37
:1022E000877AC7ED177A97ED170A03F08FF987ED14
:1022F000180AD7ED187A9FED4D7AF4EEC77AF1EE11
:1023000010FA03DDFF2387F8A03013E0D7ED187A29
:10231000F5EEC07AF1EE10FA03D5002387F8A0306D
:1023200008E0D7ED187AFCEEE77AC7ED017A3B7941
:1023300087F8A0303B4B9A7C97F8A0301343DAB271
:10234000384B9A744FF00003BB65364B9B6A7B6534
:10235000D7ED157A9FED347A67EE877AC7ED157A57
:1023600097ED150A03F052F987ED160AD7ED167AA4
:102370009FED2E7AF4EEC77AF1EE10FA03DDFF231B
:1023800087F89F3013E0D7ED167AF5EEC07AF1EEBC
:1023900010FA03D5002387F89F3008E0D7ED167AAE
:1023A000FCEEE77AC7ED017A3B7987F89F301D4B49
:1023B000DA7C97F89F301343DAB21A4BDA741C4B6D
:1023C000D3E90823C7E91223194B93ED086B184B87
:1023D00093ED0A7BB4EEC76BF1EE10FA04DD154BFA
:1023E0001A78104B83F833200E4B93F83330002BC0
:1023F00000F0A6800E4B93F84430002B40F0A080F4
:10240000084B5B68C7F8A830064B5B68B3F5803FA4
:1024100003D34FF6FF73C7F8A8300023C7F8AC30DA
:1024200019E000BF68000024EC099B4200007F43D4
:10243000A000002438580008D7F8AC300233A83385
:1024400007F108021344002203F8942CD7F8AC30AB
:102450000133C7F8AC30D7F8AC300C2BECDDD7F833
:10246000A8309BB2DB089BB2C7F8AC30D7F8AC30D1
:10247000FF2B02DDFF23C7F8AC30D7F8AC30DBB25E
:10248000BB77D7F8A830DBB25B01DBB2FB77002368
:1024900087F82030002387F82130634B5B7803F006
:1024A0000F03DBB287F822300023C7F8AC3013E00B
:1024B000D7F8AC3007335C49D7F8AC200A44103267
:1024C0001278A83307F108010B4403F8942CD7F8CD
:1024D000AC300133C7F8AC30D7F8AC30072BE7DDB0
:1024E00002233B7731237B77504BD86902234FF48B
:1024F000E0620021FEF710FF034687F89E3097F850
:102500009E30002B18D14A4B7B641021786CFFF76A
:10251000E2F8464BD86907F10C0207F11C010A23C7
:102520000293012301930F2300930023FFF7E2F8A6
:102530001021786CFFF7C1F83E498120FFF708FBB6
:102540003A4B93F844300133DBB20A2B04D9374BB2
:10255000002283F8442007E0344B93F844300133E1
:10256000DAB2324B83F84420334B5B6807EE903A83
:10257000B8EE677B9FED2A6B27EE067BB7EE006B0C
:10258000B4EEC67BF1EE10FA4CBF01230023DBB2A0
:1025900083F00103DBB287F8433097F8433007EE4E
:1025A000903AB8EE676B214B93ED0C7BB4EEC76BA2
:1025B000F1EE10FA13DD2149C020FFF7C9FA2049D6
:1025C0002048FFF743FB20492048FFF73FFB204905
:1025D0002048FFF73BFB20492048FFF737FB97F8DF
:1025E000433007EE903AB8EE677B104B83ED087BE3
:1025F0000E49D7E91223C1E90A2397F8433007EEC1
:10260000903AB8EE677B094B83ED0C7B0A4B5A6816
:1026100001325A6000BFB037BD46BDEC028B80BDB1
:10262000FCA9F1D24D62503F68000024A0000024B4
:10263000000002586C01002480010024580100248D
:10264000440100247C580008300100247F58000811
:102650001C01002482580008080100248558000845
:1026600080B586B000AF214B1A78214B83F8332018
:10267000204B00221A741F4B01225A611E4B7B61B2
:102680003B461846FEF704FE03461A4AD361194B2F
:10269000D86902234FF4E0620021FEF73DFE154B9E
:1026A00001221A761548FFF72BFA1548FFF728FA8A
:1026B0001448FFF7A3FA1448FFF7A0FA1348FFF7EE
:1026C0009DFA1348FFF79AFA0A4B00225A60094B09
:1026D00000221A700748FFF76FFB4FF08040FEF7AB
:1026E000D0FF00BF1837BD4680BD00BF3858000876
:1026F00068000024A0000024003001406C01002488
:102700005801002444010024300100241C0100244D
:102710000801002480B584B002AF234B1B78002B46
:1027200011D1214B01221A701F4B5B68012B0AD17A
:102730001D4B1B7A002B06D01B4BDB6801220221AC
:102740001846FEF717FB184B1B7C002B16D1164BB7
:1027500001221A74144B5B69012B0FD1124B1B7EA3
:10276000002B0BD04FF0FF337B600F4BD869042355
:1027700000937B687A687968FEF7C7FE0B48FFF71D
:1027800019FA0B48FFF716FA0A48FFF78FFA0A48BA
:10279000FFF78CFA0948FFF789FA0948FFF786FA2C
:1027A00000BF0837BD4680BDA00000246C01002496
:1027B0005801002444010024300100241C0100249D
:1027C0000801002480B500AF0F4B1B785A1CD1B212
:1027D0000D4A1170002B09D00C4B01221A600A4BD4
:1027E0001B78013BDAB2084B1A700BE062B600BFEF
:1027F000FFF72AFB72B600BF034B1B78013BDAB22E
:10280000014B1A7080BD00BF8C0100248801002498
:1028100080B584B000AF78603960304BFB604FF01A
:102820008543BB602E4B00221A702E4B00221A707B
:1028300001DF02F02BFC01F0A7F801F01BF901F019
:102840002DFB01F013FB01F039F900220521264888
:10285000FEF73CF801F0D8FA01F076FA234B1B683A
:1028600000221A60FFF7FCFE72B600BF97ED030A64
:1028700000F0F6F81D4B1B681B68002B0CBF0123F2
:102880000023DBB21A46174B1A7062B600BF62B65D
:1028900000BF15E0154B1B681B68002B14BF0123FC
:1028A0000023DBB21A460E4B1A700D4B1B78DBB2BD
:1028B000002B05D00E4B1B680D4A23F0010313605B
:1028C000084B1B78DBB2002BE4D1FFF723FF72B675
:1028D00000BF002318461037BD4680BD6F12833AF3
:1028E0008D0100248E01002400200240345800088D
:1028F00010E000E010B50E4C82B0636A019302F064
:1029000015FC0090626A019B9A4207D3009B4FF42A
:102910007A72019802FB030002B010BD02F006FCBF
:10292000636A4FF47A7202FB003002B010BD00BF40
:102930000000014010B5044641B9FFF7DBFF034634
:10294000181BA34238BF00F1FF3010BD02F0EEFBB0
:102950000346181BA34238BF00F1FF3010BD00BF73
:1029600080B483B000AF03463960FB80B7F906300E
:10297000002B0ADB3B68DAB20C49B7F906301201CA
:10298000D2B20B4483F800230AE03B68DAB208496C
:10299000FB8803F00F03043B1201D2B20B441A76FA
:1029A00000BF0C37BD465DF8047B704700E100E0D6
:1029B00000ED00E080B582B000AF78607B68013B3D
:1029C000B3F1807F01D301230FE00A4A7B68013B0A
:1029D00053600F214FF0FF30FFF7C2FF054B00227D
:1029E0009A60044B07221A60002318460837BD4638
:1029F00080BD00BF10E000E080B500AFBFF34F8F97
:102A000000BFBFF36F8F00BF0B4B1A680B4B1B68E7
:102A10009A4202D3084B00221A60074B1B685A1CCB
:102A200005490A60002B05D172B600BFFFF7CAFE48
:102A300062B600BF00BF80BD900100249401002455
:102A400080B400AF054B5B68044A43F08053536089
:102A500000BFBD465DF8047B704700BF00ED00E09D
:102A600080B584B000AF87ED010A234B1B6807EEE9
:102A7000903AB8EE677AD7ED017A67EE277AFCEEE6
:102A8000E77A17EE903AFB60FB68B3F1807F18D3CA
:102A9000FB6807EE903AB8EE677ADFED186AC7EE8A
:102AA000267AFCEEE77A17EE903A0133144A136067
:102AB000134B1B68FA68B2FBF3F31846FFF77AFF73
:102AC00005E00F4B00221A60F868FFF773FF0D4B0B
:102AD00000221A600C4A0D4B1A600F216FF004009F
:102AE000FFF73EFF0F216FF00100FFF739FF00BF36
:102AF0001037BD4680BD00BF08000024FFFF7F4B9C
:102B00009401002490010024F92900089801002470
:102B1000EFF3008001B5EFF3118003B41EF0100F46
:102B200008BFB0EE400A0A48006803B488B004A0A9
:102B300006904FF0807007906FF006008646704751
:102B400003BC8047BFF36F8F00DFFEE700BF0000CC
:102B5000980100241EF0100F08BFB0EE400A1EF0CE
:102B6000040F0CBFEFF30880EFF30980816911F8BF
:102B7000020C10B101280DD00BE01EF0100F0CBF9D
:102B80001AB008B003BC80F3118803BC80F300883E
:102B90000847FEE74EF61451CEF200010A6842F0F3
:102BA00001020A607047F4E700BF00BF80B400AFC5
:102BB000044BDB681B0A03F007031846BD465DF8AB
:102BC000047B704700ED00E080B483B000AF0346A3
:102BD000FB80B7F90630002B0BDBFB8803F01F02EC
:102BE0000749B7F906305B09012000FA02F241F803
:102BF000232000BF0C37BD465DF8047B704700BF43
:102C000000E100E080B483B000AF03463960FB8090
:102C1000B7F90630002B0ADB3B68DAB20C49B7F98A
:102C200006301201D2B20B4483F800230AE03B685D
:102C3000DAB20849FB8803F00F03043B1201D2B259
:102C40000B441A7600BF0C37BD465DF8047B704715
:102C500000E100E000ED00E080B489B000AFF86072
:102C6000B9607A60FB6803F00703FB61FB69C3F19D
:102C70000703042B28BF0423BB61FB690433062B25
:102C800002D9FB69033B00E000237B614FF0FF3278
:102C9000BB6902FA03F3DA43BB681A407B699A40C6
:102CA0004FF0FF317B6901FA03F3D9437B680B4096
:102CB000134318462437BD465DF8047B704780B443
:102CC00083B000AF786039607B68DB6823F44062D2
:102CD0003B681A437B68DA6000BF0C37BD465DF87D
:102CE000047B704780B487B000AFF860B9607A6049
:102CF000FB6830331A46BB681B0A9B0003F00C03C9
:102D000013447B617B691A68BB6803F01F031F21B2
:102D100001FA03F3DB431A407B689B0E03F01F01AB
:102D2000BB6803F01F0301FA03F31A437B691A60BF
:102D300000BF1C37BD465DF8047B704780B483B08C
:102D400000AF786039607B68DB6823F003023B6882
:102D50001A437B68DA6000BF0C37BD465DF8047B20
:102D6000704780B487B000AFF860B9607A60FB68E4
:102D700014331A46BB685B0E9B0003F00403134434
:102D80007B617B691A68BB681B0D03F01F03072179
:102D900001FA03F3DB431A40BB681B0D03F01F036A
:102DA000796801FA03F31A437B691A6000BF1C3784
:102DB000BD465DF8047B704780B485B000AFF86015
:102DC000B9607A60FB68D3F8C020BB68C3F3130313
:102DD000DB431A407B6803F018030849D940BB68FD
:102DE0000B40C3F313031A43FB68C3F8C02000BFB2
:102DF0001437BD465DF8047B704700BFFFFF0F002E
:102E000080B483B000AF786039607B681A69064B84
:102E100013403A681A437B681A6100BF0C37BD46FD
:102E20005DF8047B704700BFFCFBFFFF80B483B0FC
:102E300000AF78607B689A68044B13407A689360AF
:102E400000BF0C37BD465DF8047B7047C0FFFF5FD5
:102E500080B483B000AF78607B689A68054B1340FC
:102E600043F080527B689A6000BF0C37BD465DF826
:102E7000047B7047C0FFFF6F80B487B000AFF8607D
:102E8000B9607A60FB687B610D4ABB6813441B78AC
:102E90001A467B6913441B6823F0C0020849BB68CB
:102EA0000B441B7819467B690B4419467B68134316
:102EB0000B6000BF1C37BD465DF8047B704700BF48
:102EC0009858000880B487B000AFF860B9607A60A5
:102ED000FB687B610D4ABB6813441B781A467B690B
:102EE00013441B6823F490720849BB680B441B7899
:102EF00019467B690B4419467B6813430B6000BF7E
:102F00001C37BD465DF8047B704700BF9858000829
:102F100080B487B000AFF860B9607A60FB687B610D
:102F20000D4ABB6813441B781A467B6913441B681F
:102F300023F400720849BB680B441B7819467B696F
:102F40000B4419467B6813430B6000BF1C37BD461A
:102F50005DF8047B704700BF9858000880B487B0C4
:102F600000AFF860B9607A60FB687B610D4ABB68AE
:102F700013441B781A467B6913441B6823F4806250
:102F80000849BB680B441B7819467B690B441946FA
:102F90007B6813430B6000BF1C37BD465DF8047BA4
:102FA000704700BF9858000880B487B000AFF86041
:102FB000B9607A60FB687B610D4ABB6813441B787B
:102FC0001A467B6913441B6823F4C0520849BB6846
:102FD0000B441B7819467B690B4419467B681343E5
:102FE0000B6000BF1C37BD465DF8047B704700BF17
:102FF0009858000880B487B000AFF860B9607A6074
:10300000FB687B610D4ABB6813441B781A467B69D9
:1030100013441B6823F4C0420849BB680B441B7867
:1030200019467B690B4419467B6813430B6000BF4C
:103030001C37BD465DF8047B704700BF98580008F8
:1030400080B487B000AFF860B9607A60FB687B61DC
:103050000D4ABB6813441B781A467B6913441B68EE
:1030600023F440320849BB680B441B7819467B693E
:103070000B4419467B6813430B6000BF1C37BD46E9
:103080005DF8047B704700BF9858000880B485B095
:1030900000AFF860B9607A60BA68124B13449B00C5
:1030A000FA6811498A4201D1002200E0202213442B
:1030B0001B6823F0FF02B9680A4B0B449B00F968B8
:1030C0000948814201D1002100E020210B4419462A
:1030D0007B6813430B6000BF1437BD465DF8047B6B
:1030E000704700BF008200100000024080B485B02D
:1030F00000AF786039607B68FB600C4A3B68134422
:103100001B781A46FB6813445B6908493A680A440D
:1031100012781146FA680A4423F00403536100BF91
:103120001437BD465DF8047B704700BF985800080F
:1031300080B400AF054B1B68044A43F001031360E1
:1031400000BFBD465DF8047B704700BF00440258D5
:1031500080B400AF064B1B6803F00403042B01D1BD
:10316000012300E000231846BD465DF8047B70474C
:103170000044025880B483B000AF7860064B1B68EF
:1031800023F0180204497B6813430B6000BF0C371F
:10319000BD465DF8047B70470044025880B483B09C
:1031A00000AF7860074B5B6823F0FE427B681B062C
:1031B000044913434B6000BF0C37BD465DF8047BE8
:1031C000704700BF0044025880B483B000AF7860FD
:1031D000064B1B6923F0070204497B6813430B610C
:1031E00000BF0C37BD465DF8047B704700440258B1
:1031F00080B400AF044B1B6903F038031846BD468A
:103200005DF8047B704700BF0044025880B483B06F
:1032100000AF7860064B9B6923F00F0204497B687E
:1032200013438B6100BF0C37BD465DF8047B7047CC
:103230000044025880B483B000AF7860064BDB696D
:1032400023F0700204497B681343CB6100BF0C3745
:10325000BD465DF8047B70470044025880B483B0DB
:1032600000AF7860064BDB6923F4E06204497B68B9
:103270001343CB6100BF0C37BD465DF8047B70473C
:103280000044025880B483B000AF7860064B9B695D
:1032900023F0700204497B6813438B6100BF0C3735
:1032A000BD465DF8047B70470044025880B483B08B
:1032B00000AF7860064B1B6A23F0700204497B68FC
:1032C00013430B6200BF0C37BD465DF8047B7047AB
:1032D0000044025880B485B000AF78607B68DAB2F1
:1032E000104B1344FB60FB681A687B68190E7B68FF
:1032F0001B0A03F01F0301FA03F3DB431A407B6848
:103300001B0CD9B27B681B0A03F01F0301FA03F3FD
:103310001A43FB681A6000BF1437BD465DF8047B92
:10332000704700BF4C44025880B582B000AF78604F
:103330007868FFF7CFFF00BF0837BD4680BD0000AB
:1033400080B483B000AF7860064B9B6D23F44032AD
:1033500004497B6813438B6500BF0C37BD465DF89D
:10336000047B70470044025880B483B000AF78609B
:10337000064B9B6A23F0030204497B6813438B626C
:1033800000BF0C37BD465DF8047B7047004402580F
:1033900080B400AF054B1B68044A43F08073136090
:1033A00000BFBD465DF8047B704700BF0044025873
:1033B00080B400AF074B1B6803F00073B3F1007FCC
:1033C00001D1012300E000231846BD465DF8047BCF
:1033D000704700BF0044025880B400AF054BDB6A61
:1033E000044A43F40033D36200BFBD465DF8047B5A
:1033F000704700BF0044025880B483B000AF7860CB
:10340000074BDB6A23F002027B685B00044913432D
:10341000CB6200BF0C37BD465DF8047B704700BF30
:103420000044025880B483B000AF7860074BDB6A79
:1034300023F00C027B689B0004491343CB6200BF5E
:103440000C37BD465DF8047B704700BF004402584E
:1034500080B483B000AF7860074B1A6B074B134002
:103460007A68013A044913430B6300BF0C37BD4629
:103470005DF8047B704700BF0044025800FEFFFF68
:1034800080B483B000AF7860074B9B6A23F47C72F2
:103490007B681B01044913438B6200BF0C37BD4698
:1034A0005DF8047B704700BF0044025880B483B0CD
:1034B00000AF7860074B1B6B23F47E427B68013BB7
:1034C0005B02044913430B6300BF0C37BD465DF834
:1034D000047B70470044025880B483B000AF78602A
:1034E000074B1B6B23F4FE027B68013B1B04044962
:1034F00013430B6300BF0C37BD465DF8047B704778
:103500000044025880B483B000AF7860074B1B6B57
:1035100023F0FE427B68013B1B06044913430B6307
:1035200000BF0C37BD465DF8047B7047004402586D
:1035300080B400AF054B1B68044A43F080631360FE
:1035400000BFBD465DF8047B704700BF00440258D1
:1035500080B400AF074B1B6803F00063B3F1006F4A
:1035600001D1012300E000231846BD465DF8047B2D
:10357000704700BF0044025880B400AF054BDB6ABF
:10358000044A43F40023D36200BFBD465DF8047BC8
:10359000704700BF0044025880B483B000AF786029
:1035A000074BDB6A23F020027B685B01044913436D
:1035B000CB6200BF0C37BD465DF8047B704700BF8F
:1035C0000044025880B483B000AF7860074BDB6AD8
:1035D00023F0C0027B689B0104491343CB6200BF08
:1035E0000C37BD465DF8047B704700BF00440258AD
:1035F00080B483B000AF7860074B9A6B074B1340E1
:103600007A68013A044913438B6300BF0C37BD4607
:103610005DF8047B704700BF0044025800FEFFFFC6
:1036200080B483B000AF7860074B9B6A23F47C3290
:103630007B681B03044913438B6200BF0C37BD46F4
:103640005DF8047B704700BF0044025880B483B02B
:1036500000AF7860074B9B6B23F47E427B68013B95
:103660005B02044913438B6300BF0C37BD465DF812
:10367000047B70470044025880B483B000AF786088
:10368000074B9B6B23F4FE027B68013B1B04044940
:1036900013438B6300BF0C37BD465DF8047B704756
:1036A0000044025880B483B000AF7860074B9B6B36
:1036B00023F0FE427B68013B1B06044913438B63E6
:1036C00000BF0C37BD465DF8047B704700440258CC
:1036D00080B485B000AF78600A4BD3F8382109492F
:1036E0007B681343C1F83831064BD3F838217B6827
:1036F0001340FB60FB6800BF1437BD465DF8047BD8
:10370000704700BF0044025880B485B000AF7860B5
:103710000A4BD3F8402109497B681343C1F8403173
:10372000064BD3F840217B681340FB60FB6800BF69
:103730001437BD465DF8047B704700BF0044025853
:1037400080B485B000AF78600A4BD3F848210949AE
:103750007B681343C1F84831064BD3F848217B6896
:103760001340FB60FB6800BF1437BD465DF8047B67
:10377000704700BF0044025880B485B000AF786045
:103780000A4BD3F8502109497B681343C1F85031E3
:10379000064BD3F850217B681340FB60FB6800BFE9
:1037A0001437BD465DF8047B704700BF00440258E3
:1037B00080B483B000AF7860064B1B6823F00F0223
:1037C00004497B6813430B6000BF0C37BD465DF8AE
:1037D000047B70470020005280B400AF044B1B688C
:1037E00003F00F031846BD465DF8047B704700BF29
:1037F0000020005280B483B000AF7860064BDB68D5
:1038000023F0070204497B681343CB6000BF0C37E9
:10381000BD465DF8047B70470048025880B483B011
:1038200000AF7860064B9B6923F4404204497B68F3
:1038300013438B6100BF0C37BD465DF8047B7047B6
:103840000048025880B400AF074B9B6903F4005353
:10385000B3F5005F01D1012300E000231846BD4607
:103860005DF8047B704700BF0048025880B483B005
:1038700000AF786039607B68DB6823F460123B68D6
:103880001A437B68DA6000BF0C37BD465DF8047BE5
:10389000704780B483B000AF786039607B689B6804
:1038A00023F4F0723B681A437B689A6000BF0C37C0
:1038B000BD465DF8047B704780B483B000AF78608C
:1038C0007B68DB6823F080427B68DA6000BF0C37DE
:1038D000BD465DF8047B704780B483B000AF78606C
:1038E0007B681B6843F080027B681A6000BF0C375E
:1038F000BD465DF8047B704780B483B000AF78604C
:1039000039607B689A68064B13403A681A437B68B3
:103910009A6000BF0C37BD465DF8047B704700BF5E
:10392000F8BFFEFF80B483B000AF786039607B6879
:103930005B6823F070023B681A437B685A6000BFE3
:103940000C37BD465DF8047B704780B483B000AF90
:1039500078607B689B6823F080027B689A6000BF78
:103960000C37BD465DF8047B704780B483B000AF70
:10397000786039603B681A047B689A6100BF0C3735
:10398000BD465DF8047B704780B500AF374B4FF004
:10399000FF32C3F8B0200220FFF70AFF00BFFFF795
:1039A0001BFF0346022BFAD10220FFF723FF002062
:1039B000FFF734FF00BFFFF745FF0346002BFAD0A7
:1039C000FFF7B6FB00BFFFF7C3FB0346012BFAD19D
:1039D0004020FFF7E3FB0020FFF7CCFB0020FFF7C0
:1039E000C3FCFFF7F9FC0320FFF71CFD0020FFF7E5
:1039F00003FD0420FFF744FD0820FFF729FD022006
:103A0000FFF754FD0220FFF767FD0220FFF77AFD64
:103A1000FFF7BEFC00BFFFF7CBFC0346012BFAD13A
:103A20000020FFF7D1FB00BFFFF7E2FB0346002BAE
:103A3000FAD10020FFF7EAFB0020FFF7FBFB002094
:103A4000FFF70CFC0020FFF71DFC0020FFF72EFC09
:103A5000074801F029F80F2000F0C8FA0346002BB0
:103A600001D000F077FA00BF80BD00BF00440258CB
:103A70000090D00380B500AFFFF77EFD0320FFF775
:103A8000A1FD0020FFF788FD0420FFF7C9FD0820F5
:103A9000FFF7AEFD0820FFF7D9FD0220FFF7ECFD90
:103AA0000220FFF7FFFDFFF743FD00BFFFF750FDCA
:103AB0000346012BFAD100BF00BF80BD80B594B092
:103AC00000AF07F1440300221A605A609A6007F1C0
:103AD0002C0300221A605A609A60DA601A615A61F7
:103AE00007F11C0300221A605A609A60DA603B1DDD
:103AF00000221A605A609A60DA601A615A610020E6
:103B0000FFF71EFC2020FFF7E3FD0420FFF7FCFD7C
:103B10000120FFF7F9FD07237B600323BB6000232F
:103B20007B613B1D19467B4800F074FE03237B60DC
:103B30000323BB6000237B613B1D1946764800F0E0
:103B400069FE092200217548FFF7A0FA0022002132
:103B50007248FFF791F9002200217048FFF770FAD0
:103B60004FF4807200216D48FFF7ACF9002200216C
:103B70006A48FFF7CDF94FF4806200216748FFF7EC
:103B8000EDF94FF4006200216448FFF70DFA4FF49D
:103B9000005200216148FFF72DFA00215F48FFF72E
:103BA000A5FAFFF703F80346002200211846FFF7A5
:103BB00053F8034619461220FFF724F81220FFF7A6
:103BC00003F800215648FFF71BF900237B6400230C
:103BD000FB640023BB6407F144031946504800F01E
:103BE000EDFE4FF4AC63FB6204233B6300237B6375
:103BF0000023BB634FF480533B6407F12C03194649
:103C0000474800F007FF03214548FFF797F80023D6
:103C1000FB6100233B6207F11C031946414800F099
:103C20008DFE4FF480613E48FFF749F83C48FFF7AE
:103C3000FDF83B48FFF70CF93B4B1B689B093B4ADF
:103C4000A2FB03239A0913469B0013445B001A4608
:103C5000374BA3FB0223DB083B6002E03B68013BE0
:103C60003B603B68002BF9D1324A06212C48FFF714
:103C700039F805222F492A48FFF773F840F2FF72FE
:103C80002C492748FFF798F82B4A0C212448FFF7C6
:103C900029F8052228492248FFF763F840F2FF720D
:103CA00025491F48FFF788F8244A12211C48FFF7CE
:103CB00019F8052221491A48FFF753F840F2FF721C
:103CC0001E491748FFF778F81D4A18211448FFF7D6
:103CD00009F805221A491248FFF743F840F2FF722B
:103CE00017490F48FFF768F8164A4FF480710C48DF
:103CF000FEF7F8FF052213490948FFF732F840F2B2
:103D0000FF7210490648FFF757F800BF5037BD460D
:103D100080BD00BF000802580000025800000240A9
:103D2000002002400023024008000024632D3E05CD
:103D3000CDCCCCCC0004002A0008302E001060321C
:103D4000000021430000524780B590B000AF07F15A
:103D5000180328220021184601F07EFC3B46002271
:103D60001A605A609A60DA601A615A612348FFF754
:103D7000DBFA4FF48050FFF7FFFC0120FFF7C4FC93
:103D8000E0233B6002237B600023BB600023FB60D9
:103D900000233B6105237B613B461946184800F030
:103DA00039FD0023BB614FF48003FB6107233B62B5
:103DB00000237B620023BB624FF08063FB624FF005
:103DC00000533B6300237B630023BB630023FB633F
:103DD00007F1180319460B4801F0F6F900210948CC
:103DE000FFF744FD00210748FFF753FD0548FFF7A3
:103DF00063FD00BF4037BD4680BD00BF040C000717
:103E0000000002580030014080B586B000AF3B1D75
:103E100000221A605A609A60DA601A610120FFF786
:103E20008FFC3F23BB800023BB6040F2E733FB6085
:103E300000233B613B1D19464FF0804001F07EFAA4
:103E40004FF08040FFF748FD00214FF08040FFF722
:103E500053FD20214FF08040FFF764FD4FF080407C
:103E6000FFF773FD00BF1837BD4680BD80B500AFBA
:103E70000120FFF72DFCFEF799FE034600220021EA
:103E80001846FEF7E9FE034619460B20FEF7BAFE78
:103E90000B20FEF799FE00BF80BD000080B586B004
:103EA00000AF3B4600221A605A609A60DA601A61DD
:103EB0005A610420FFF728FC8020FFF725FC012031
:103EC000FFF722FC0220FFF71FFC06211648FFF730
:103ED0004CFD06233B6001237B600023BB60002375
:103EE000FB6000233B613B4619460F4800F092FC03
:103EF0004FF4F0533B6000237B6000233B613B4663
:103F000019460A4800F086FC20233B6000237B60B2
:103F100000233B613B461946034800F07BFC00BF91
:103F20001837BD4680BD00BF00040258000002588B
:103F300080B582B000AF78607B681B68044A93420A
:103F400001D101F0DFF800BF0837BD4680BD00BFDA
:103F50000000014080B400AF72B600BF00BFFDE7B3
:103F600080B400AF00BFFDE780B400AF00BFFDE745
:103F700080B400AF00BFFDE780B400AF00BFFDE735
:103F800080B400AF00BFFDE780B400AF00BFBD4606
:103F90005DF8047B704780B400AF00BFBD465DF89C
:103FA000047B704780B500AF024800F059F900BFAC
:103FB00080BD00BF9C01002480B483B000AF0A4BD9
:103FC000D3F85431084A43F00203C2F85431064B87
:103FD000D3F8543103F002037B607B6800BF0C37D9
:103FE000BD465DF8047B70470044025880B58EB032
:103FF00000AF78607B680F2B42D8002279681920C7
:1040000001F01CF8192001F033F8234A7B68136093
:10401000224BD3F85031214A43F00103C2F850310A
:104020001E4BD3F8503103F00103BB60BB6807F1AE
:104030000C0207F110031146184600F005FF00F0CE
:10404000EDFE78637B6B164AA2FB03239B0C013BBE
:104050003B63144B144A1A60124B40F2E732DA60A9
:10406000104A3B6B53600F4B00221A610D4B00222C
:104070009A600C4800F01AF80346002B07D101E0C3
:10408000012305E0074800F073F8034600E0012330
:1040900018463837BD4680BD000000240044025851
:1040A00083DE1B439C0100240000014080B582B0E8
:1040B00000AF78607B68002B01D1012349E07B6869
:1040C00093F83D30DBB2002B06D17B68002283F8E9
:1040D0003C20786800F041F87B68022283F83D209C
:1040E0007B681A687B6804331946104600F000FAB2
:1040F0007B68012283F848207B68012283F83E20F8
:104100007B68012283F83F207B68012283F84020EE
:104110007B68012283F841207B68012283F84220DA
:104120007B68012283F843207B68012283F84420C6
:104130007B68012283F845207B68012283F84620B2
:104140007B68012283F847207B68012283F83D20A9
:10415000002318460837BD4680BD80B483B000AF49
:10416000786000BF0C37BD465DF8047B70470000E7
:1041700080B485B000AF78607B6893F83D30DBB2E7
:10418000012B01D0012354E07B68022283F83D20FB
:104190007B681B68DA687B681B6842F00102DA60A2
:1041A0007B681B68264A934222D07B681B68B3F168
:1041B000804F1DD07B681B68224A934218D07B68D1
:1041C0001B68214A934213D07B681B681F4A9342A5
:1041D0000ED07B681B681E4A934209D07B681B681F
:1041E0001C4A934204D07B681B681B4A934215D13A
:1041F0007B681B689A68194B1340FB60FB68062BB1
:1042000015D0FB68B3F5803F11D07B681B681A6836
:104210007B681B6842F001021A6008E07B681B683B
:104220001A687B681B6842F001021A6000E000BF58
:10423000002318461437BD465DF8047B704700BF65
:10424000000001400004004000080040000C004055
:104250000004014000180040004001400700010038
:1042600080B582B000AF78607B681B681B6903F083
:104270000203022B22D17B681B68DB6803F0020378
:10428000022B1BD17B681B686FF002021A617B68EE
:1042900001221A777B681B689B6903F00303002BDC
:1042A00003D0786800F005F905E0786800F0F7F8C9
:1042B000786800F008F97B6800221A777B681B6831
:1042C0001B6903F00403042B22D17B681B68DB68A5
:1042D00003F00403042B1BD17B681B686FF00402FE
:1042E0001A617B6802221A777B681B689B6903F45A
:1042F0004073002B03D0786800F0DBF805E07868A5
:1043000000F0CDF8786800F0DEF87B6800221A77BC
:104310007B681B681B6903F00803082B22D17B68AC
:104320001B68DB6803F00803082B1BD17B681B6844
:104330006FF008021A617B6804221A777B681B6899
:10434000DB6903F00303002B03D0786800F0B1F8B9
:1043500005E0786800F0A3F8786800F0B4F87B68AE
:1043600000221A777B681B681B6903F01003102B6F
:1043700022D17B681B68DB6803F01003102B1BD174
:104380007B681B686FF010021A617B6808221A773D
:104390007B681B68DB6903F44073002B03D07868EB
:1043A00000F087F805E0786800F079F8786800F0A8
:1043B0008AF87B6800221A777B681B681B6903F008
:1043C0000103012B0ED17B681B68DB6803F001033E
:1043D000012B07D17B681B686FF001021A617868B6
:1043E000FFF7A6FD7B681B681B6903F08003802B29
:1043F0000ED17B681B68DB6803F08003802B07D13C
:104400007B681B686FF080021A61786800F014F90D
:104410007B681B681B6903F48073B3F5807F0ED142
:104420007B681B68DB6803F08003802B07D17B6807
:104430001B686FF480721A61786800F007F97B6876
:104440001B681B6903F04003402B0ED17B681B687F
:10445000DB6803F04003402B07D17B681B686FF0DB
:1044600040021A61786800F038F87B681B681B69A5
:1044700003F02003202B0ED17B681B68DB6803F060
:104480002003202B07D17B681B686FF020021A6184
:10449000786800F0C7F800BF0837BD4680BD80B41B
:1044A00083B000AF786000BF0C37BD465DF8047B79
:1044B000704780B483B000AF786000BF0C37BD4652
:1044C0005DF8047B704780B483B000AF786000BFB4
:1044D0000C37BD465DF8047B704780B483B000AFF5
:1044E000786000BF0C37BD465DF8047B7047000064
:1044F00080B485B000AF786039607B681B68FB6072
:104500007B68404A934213D07B68B3F1804F0FD051
:104510007B683D4A93420BD07B683C4A934207D06C
:104520007B683B4A934203D07B683A4A934208D166
:10453000FB6823F07003FB603B685B68FA68134319
:10454000FB607B682F4A93421FD07B68B3F1804F9A
:104550001BD07B682C4A934217D07B682B4A93422E
:1045600013D07B682A4A93420FD07B68294A934232
:104570000BD07B68284A934207D07B68274A934236
:1045800003D07B68264A934208D1FB6823F440732A
:10459000FB603B68DB68FA681343FB60FB6823F051
:1045A00080023B685B691343FB607B68FA681A60B2
:1045B0003B689A687B68DA623B681A687B689A6233
:1045C0007B68104A93420FD07B68124A93420BD00B
:1045D0007B68114A934207D07B68104A934203D00C
:1045E0007B680F4A934203D13B681A697B681A6360
:1045F0007B6801225A6100BF1437BD465DF8047B19
:10460000704700BF00000140000400400008004067
:10461000000C004000040140004001400044014003
:104620000048014080B483B000AF786000BF0C3711
:10463000BD465DF8047B704780B483B000AF7860FE
:1046400000BF0C37BD465DF8047B704780B483B073
:1046500000AF786000BF0C37BD465DF8047B704743
:1046600080B485B000AFF860B9607A60FB68196803
:10467000BB6803FB03F213465B001344DB4301EA10
:104680000302BB6803FB03F3796801FB03F31A43DE
:10469000FB681A6000BF1437BD465DF8047B7047A5
:1046A00080B485B000AFF860B9607A60FB685A6882
:1046B000BB68DB431A40BB68796801FB03F31A430C
:1046C000FB685A6000BF1437BD465DF8047B704735
:1046D00080B485B000AFF860B9607A60FB68996813
:1046E000BB6803FB03F213465B001344DB4301EAA0
:1046F0000302BB6803FB03F3796801FB03F31A436E
:10470000FB689A6000BF1437BD465DF8047B7047B4
:1047100080B485B000AFF860B9607A60FB68D96892
:10472000BB6803FB03F213465B001344DB4301EA5F
:104730000302BB6803FB03F3796801FB03F31A432D
:10474000FB68DA6000BF1437BD465DF8047B704734
:1047500080B485B000AFF860B9607A60FB68196A10
:10476000BB6803FB03F3BA6802FB03F3BA6803FBFD
:1047700002F213461B019B1ADB4301EA0302BB68EA
:1047800003FB03F3B96801FB03F3B96801FB03F30F
:10479000796801FB03F31A43FB681A6200BF143700
:1047A000BD465DF8047B704780B485B000AFF8600B
:1047B000B9607A60FB68596ABB681B0ABA68120A5A
:1047C00002FB03F3BA68120A02FB03F3BA68120A87
:1047D00003FB02F213461B019B1ADB4301EA0302AF
:1047E000BB681B0AB968090A01FB03F3B968090A27
:1047F00001FB03F3B968090A01FB03F3796801FBC4
:1048000003F31A43FB685A6200BF1437BD465DF8D4
:10481000047B704780B588B000AF786039603B6832
:104820001B683B613B6993FAA3F3FB60FB687B6108
:104830007B69002B01D1202303E07B69B3FA83F36A
:10484000DBB2FB6148E03B681A680121FB6901FAB1
:1048500003F31340BB61BB69002B3AD03B685B6834
:10486000012B03D03B685B68022B0ED13B689B6831
:104870001A46B9697868FFF72BFF3B6819683B68EF
:10488000DB681A467868FFF70BFF3B681B691A461E
:10489000B9697868FFF73CFF3B685B68022B11D170
:1048A000BB69FF2B07D83B685B691A46B969786812
:1048B000FFF74EFF06E03B685B691A46B969786806
:1048C000FFF772FF3B685B681A46B9697868FFF7C3
:1048D000C7FEFB690133FB613B681A68FB6922FA7A
:1048E00003F3002BAFD1002318462037BD4680BD0F
:1048F00080B483B000AF786039607B681B6B23F0B5
:104900000F023B681A437B681A6300BF0C37BD4631
:104910005DF8047B704780B483B000AF78607B683B
:104920009B6803F00103012B01D1012300E0002368
:1049300018460C37BD465DF8047B704790B585B0CE
:1049400000AF786039600023FB731948FFF7E3FF7D
:1049500004461848FFF7DFFF03462343002B20D10E
:104960003B685B68002B12D07B689A68124B13403F
:104970003A6811683A68526811433A68926811437C
:104980003A68D2680A431A437B689A600BE07B68F6
:104990009A68094B13403A6812681A437B689A6018
:1049A00001E00123FB73FB7B18461437BD4690BD25
:1049B0000020024000210240E030C0FF80B584B0FA
:1049C00000AF786039600023FB737868FFF7A3FFBE
:1049D0000346002B15D17B68DA680D4B13403A680B
:1049E00011683A6892680A431A437B68DA607B6808
:1049F0001B6923F070423B685B681A437B681A614D
:104A000001E00123FB73FB7B18461037BD4680BDD8
:104A1000E3BFFFFF80B584B000AF7860396000234A
:104A2000FB737868FFF777FF0346002B32D13B68B2
:104A30005B68002B15D07B68DA681A4B13403A6824
:104A400011683A68926811433A68D26811433A682B
:104A5000126911433A6852690A431A437B68DA6063
:104A600011E07B68DA680F4B13403A6811683A68C6
:104A7000D26811433A68126911433A6852690A438D
:104A80001A437B68DA603B685B6819467868FFF711
:104A90002FFF01E00123FB73FB7B18461037BD4657
:104AA00080BD00BF1CC0F0FF80B483B000AF786051
:104AB000044A7B68136000BF0C37BD465DF8047B79
:104AC000704700BF0800002480B489B000AFB34B2A
:104AD0001B6903F03803182B00F2558101A252F82C
:104AE00023F000BF494B0008874D0008874D0008A0
:104AF000874D0008874D0008874D0008874D000846
:104B0000874D00086F4B0008874D0008874D00084F
:104B1000874D0008874D0008874D0008874D000825
:104B2000874D0008754B0008874D0008874D000829
:104B3000874D0008874D0008874D0008874D000805
:104B4000874D00087B4B0008944B1B6803F0200343
:104B5000002B09D0914B1B68DB0803F00303904A3C
:104B600022FA03F3BB6111E18D4BBB610EE18D4B6A
:104B7000BB610BE18C4BBB6108E1884B9B6A03F086
:104B800003037B61854B9B6A1B0903F03F033B6179
:104B9000824BDB6A03F00103FB60804B5B6BDB083D
:104BA000C3F30C03FA6802FB03F307EE903AF8EE46
:104BB000677AC7ED027A3B69002B00F0E1807B69E0
:104BC000022B00F083807B69022B00F2A1807B69BD
:104BD000002B03D07B69012B56D099E06F4B1B68EB
:104BE00003F02003002B2DD06C4B1B68DB0803F077
:104BF00003036B4A22FA03F37B607B6807EE903A6B
:104C0000F8EE676A3B6907EE903AF8EE677A86EE4F
:104C1000A77A624B1B6BC3F3080307EE903AF8EEDA
:104C2000676A97ED026ADFED615AC6EE257A76EE85
:104C3000A77AF7EE006A77EEA67A67EE277AC7EDD5
:104C4000077A87E03B6907EE903AF8EE677ADFED86
:104C5000586A86EEA77A514B1B6BC3F3080307EE25
:104C6000903AF8EE676A97ED026ADFED505AC6EEA9
:104C7000257A76EEA77AF7EE006A77EEA67A67EEE7
:104C8000277AC7ED077A65E03B6907EE903AF8EEC0
:104C9000677ADFED486A86EEA77A404B1B6BC3F359
:104CA000080307EE903AF8EE676A97ED026ADFEDC7
:104CB0003F5AC6EE257A76EEA77AF7EE006A77EECF
:104CC000A67A67EE277AC7ED077A43E03B6907EEDD
:104CD000903AF8EE677ADFED386A86EEA77A2F4BC6
:104CE0001B6BC3F3080307EE903AF8EE676A97ED83
:104CF000026ADFED2E5AC6EE257A76EEA77AF7EE37
:104D0000006A77EEA67A67EE277AC7ED077A21E088
:104D10003B6907EE903AF8EE677ADFED266A86EE99
:104D2000A77A1E4B1B6BC3F3080307EE903AF8EE0D
:104D3000676A97ED026ADFED1D5AC6EE257A76EEB8
:104D4000A77AF7EE006A77EEA67A67EE277AC7EDC4
:104D5000077A00BF114B1B6B5B0A03F07F03013323
:104D60003B603B6807EE903AB8EE677AD7ED076A8A
:104D7000C6EE877AFCEEE77A17EE903ABB6105E063
:104D80000023BB6102E0074BBB6100BFBB69184653
:104D90002437BD465DF8047B704700BF00440258CD
:104DA0000090D00300093D0000366E01000000466F
:104DB0000024744C0024744A001BB74B80B582B0A9
:104DC00000AFFFF781FE0246104B9B691B0A03F000
:104DD0000F030F49CB5C03F01F0322FA03F37B6040
:104DE0000A4B9B6903F00F03094AD35C03F01F03CE
:104DF0007A6822FA03F3074A1360074A7B68136054
:104E0000044B1B6818460837BD4680BD0044025855
:104E1000A05800080C0000240800002480B500AF52
:104E2000FFF7CCFF0246064BDB691B0A03F00703C2
:104E30000449CB5C03F01F0322FA03F3184680BD3C
:104E400000440258A058000880B483B000AF7860D6
:104E500039607B683F221A601A4B1B6903F0070216
:104E60007B685A60174B9B6903F470627B689A6099
:104E7000144B9B6903F00F027B68DA60114B9B694E
:104E800003F070027B681A610E4BDB6903F070025D
:104E90007B685A610B4BDB6903F4E0627B689A61C3
:104EA000084B1B6A03F070027B68DA61064B1B68D3
:104EB00003F00F023B681A6000BF0C37BD465DF877
:104EC000047B7047004402580020005280B485B033
:104ED00000AF78607B6803F00703FB600B4BDB6877
:104EE000BB60BA684FF6FF031340BB60FB681A0251
:104EF000BB681A43064B1343BB60044ABB68D360CC
:104F000000BF1437BD465DF8047B704700ED00E03C
:104F10000000FA0580B400AF044BDB681B0A03F005
:104F200007031846BD465DF8047B704700ED00E0BE
:104F300080B483B000AF0346FB80B7F90630002B86
:104F40000BDBFB8803F01F020749B7F906305B094A
:104F5000012000FA02F241F8232000BF0C37BD46C1
:104F60005DF8047B704700BF00E100E080B483B0CF
:104F700000AF03463960FB80B7F90630002B0ADB2F
:104F80003B68DAB20C49B7F906301201D2B20B44D1
:104F900083F800230AE03B68DAB20849FB8803F093
:104FA0000F03043B1201D2B20B441A7600BF0C3738
:104FB000BD465DF8047B704700E100E000ED00E0D5
:104FC00080B489B000AFF860B9607A60FB6803F024
:104FD0000703FB61FB69C3F10703042B28BF04230C
:104FE000BB61FB690433062B02D9FB69033B00E07C
:104FF00000237B614FF0FF32BB6902FA03F3DA430F
:10500000BB681A407B699A404FF0FF317B6901FA17
:1050100003F3D9437B680B40134318462437BD463E
:105020005DF8047B704780B582B000AF7860786827
:10503000FFF74CFF00BF0837BD4680BD80B586B086
:1050400000AF0346B9607A60FB81FFF763FF7861C8
:105050007A68B9687869FFF7B3FF0246B7F90E308E
:1050600011461846FFF782FF00BF1837BD4680BDC6
:1050700080B582B000AF0346FB80B7F90630184612
:10508000FFF756FF00BF0837BD4680BD80B582B030
:1050900000AF0320FFF7C7FFFFF716FD0246154BD1
:1050A0009B691B0A03F00F031349CB5C03F01F033A
:1050B00022FA03F37B600F4B9B6903F00F030E4A48
:1050C000D35C03F01F037A6822FA03F30B4A1360E0
:1050D0000B4A7B6813600F20FEF788FF0346002B06
:1050E00001D0012302E0FEF767FF002318460837CE
:1050F000BD4680BD00440258A05800080C000024A2
:105100000800002480B400AF064B1B781A46064BFB
:105110001B681344044A136000BFBD465DF8047B5E
:10512000704700BF04000024E801002480B400AFF1
:10513000034B1B681846BD465DF8047B704700BFF3
:10514000E801002480B483B000AF78607B681B68FE
:1051500003F00103012B01D1012300E000231846D5
:105160000C37BD465DF8047B704780B483B000AF58
:10517000786039607B681B6823F480523B681A436F
:105180007B681A6000BF0C37BD465DF8047B704732
:1051900080B483B000AF78607B68DB6803F0805335
:1051A00018460C37BD465DF8047B704780B483B069
:1051B00000AF786039607B683A681A6400BF0C37CA
:1051C000BD465DF8047B704780B586B000AF78605F
:1051D00039600123FB757868FFF7B4FF0346002BA5
:1051E00069D17B689A68364B13403A6891693A688E
:1051F000126A11433A6892680A431A437B689A60BC
:105200003B685B693B613B685B68FB603B69B3F192
:10521000806F18D17868FFF7BBFF0346002B03D1DE
:10522000FB68B3F5800F09D07868FFF7B1FF03463C
:10523000B3F1805F07D1FB68002B04D14FF480519C
:105240007868FFF792FF7B68DA681E4B13403A6874
:1052500051693A68D26811433A68126911433A6851
:10526000D26911433A68526811433A68126802F4ED
:10527000C0220A431A437B68DA607B681B6823F408
:1052800000623B681B6803F400631A437B681A6082
:105290003B681B6AB3F5800F05D13B685B6A194612
:1052A0007868FFF783FF7B681B6D23F001027B6842
:1052B0001A650023FB75FB7D18461837BD4680BD77
:1052C000E0FFBF8FFFFF39D880B483B000AF7860B4
:1052D00039607B683A689A6200BF0C37BD465DF85A
:1052E000047B704780B483B000AF786039607B681E
:1052F0003A68DA6200BF0C37BD465DF8047B704740
:1053000080B483B000AF786039607B683A681A6314
:1053100000BF0C37BD465DF8047B704780B483B096
:1053200000AF78607B685B6943F001027B685A617B
:1053300000BF0C37BD465DF8047B704780B584B074
:1053400000AF786039607B681B68FB607B683D4A12
:10535000934213D07B68B3F1804F0FD07B683A4AF9
:1053600093420BD07B68394A934207D07B68384A16
:10537000934203D07B68374A934206D1FB6823F0FF
:1053800070023B685B681343FB607B682D4A934265
:105390001FD07B68B3F1804F1BD07B682A4A9342B1
:1053A00017D07B68294A934213D07B68284A9342DE
:1053B0000FD07B68274A93420BD07B68264A9342E2
:1053C00007D07B68254A934203D07B68244A9342E6
:1053D00006D1FB6823F440723B68DB681343FB6033
:1053E0007B68FA681A603B689B6819467868FFF723
:1053F00079FF3B681B8819467868FFF765FF7B6873
:10540000104A93420FD07B68124A93420BD07B68BC
:10541000114A934207D07B68104A934203D07B68BD
:105420000F4A934205D13B681B6919467868FFF71C
:1054300067FF7868FFF772FF002318461037BD46F4
:1054400080BD00BF00000140000400400008004093
:10545000000C0040000401400040014000440140B5
:105460000048014080B400AF3E4BD3F888303D4A3D
:1054700043F47003C2F888303B4B1B6803F00F0302
:10548000022B07D8384B1B6823F00F03364A43F032
:1054900003031360354B1B68344A43F00103136068
:1054A000324B00221A61314B1A683049304B13409D
:1054B0000B602D4B1B6803F00C03002B07D02A4B0D
:1054C0001B6823F00F03284A43F003031360274BA4
:1054D00000229A61254B0022DA61244B00221A62D5
:1054E000224B244A9A62214B234ADA621F4B234AF9
:1054F0001A631E4B00225A631C4B204A9A631B4BB3
:105500000022DA63194B1D4A1A64184B00225A64B0
:10551000164B1B68154A23F480231360134B00229B
:105520001A66124BD3F8343103F48053002B13D195
:105530000E4BD3F834310D4A43F48053C2F8343162
:105540000F4B43F2D2021A60084BD3F83431074AAA
:1055500023F48053C2F8343100BFBD465DF8047BAC
:10556000704700BF00ED00E00020005200440258E8
:105570007FEDF6EA000202020000FF018002010155
:105580000040005280B400AF094BDB68084A43F08A
:105590000203D36000BF064B5B6803F40053002B8B
:1055A000F9D000BF00BFBD465DF8047B704700BF67
:1055B00000480258DFF838D0FFF7E4FFFFF752FF4A
:1055C0000C480D490D4A002302E0D458C45004335E
:1055D000C4188C42F9D30A4A0A4C002301E0136034
:1055E0000432A242FBD300F089F8FDF711F9FEE77F
:1055F000000010240000002414000024BC580008FF
:105600001800002484030024FEE7000010EE103A86
:10561000C3F3C7527F3A162A194615DC002A0CDB61
:105620000C481041184205D04FF4800313410B443D
:1056300023EA000300EE103A7047013203F0004302
:10564000F8D143F07E53F5E7802AF3D130EE000A1B
:10565000704700BFFFFF7F00830730B547D0541E5F
:10566000002A3ED0CAB2034601E0013C39D303F818
:10567000012B9D07F9D1032C2CD9CDB205EB0525C3
:105680000F2C05EB054535D9A4F1100222F00F0CC3
:1056900003F1100EE6444FEA121C1A46C2E9005507
:1056A000C2E9025510327245F8D10CF1010214F032
:1056B0000C0F03EB021204F00F0C13D0ACF1040337
:1056C00023F003030433134442F8045B9342FBD1F9
:1056D0000CF003042CB1C9B21C4403F8011BA34213
:1056E000FBD130BD64461346002CF4D1F9E70346E4
:1056F0001446C0E71A46A446E0E700BF70B50F4B5A
:105700000F4DAB42A3EB050607D0B610002455F8A9
:10571000043B01349847A642F9D800F07FF8094DC0
:10572000094B5E1BAB424FEAA60606D0002455F893
:10573000043B01349847A642F9D870BDB058000820
:10574000B0580008B0580008B8580008704700BFAB
:10575000704700BF024B13B1024800F005B8704714
:105760000000000075570008002301461A4618463D
:1057700000F014B838B5074D074C2C1BA41005D009
:10578000013C55F8043D9847002CF9D1BDE838405C
:1057900000F04AB8BC580008B85800082DE9F84392
:1057A0001B4D0646286898460F469146FFF7CEFFE8
:1057B000184B1C681CB3286865681F2D22DC4EB985
:1057C0006B1C0235636044F82570FFF7C1FF0020B1
:1057D000BDE8F88304EB85010123C1F88890D4F873
:1057E0008821AB401A43022EC4F88821C1F80881F1
:1057F000E6D1D4F88C211A43C4F88C21E0E7064C9A
:105800001C60D8E7FFF7A4FF4FF0FF30E0E700BFD0
:1058100010000024F0010024F4010024F8B500BFBA
:10582000F8BC08BC9E467047F8B500BFF8BC08BC81
:045830009E467047D9
:1058340080010024010000005C8FC23EE17A143F25
:1058440014AE473FEC51783FE17A943FCDCCAC3F66
:105854000AD7C33FA470DD3F3333F33FB81E05407E
:10586400AE471140F6281C4014AE27403333334072
:105874007B143E40C3F54840022AC00229990228FD
:1058840002020F00000F0E0D0C0B0A090807060593
:1058940004030201102840587088A0B800000000DA
:0C58A400010203040102030406070809C6
:0858B000555700081903000818
:0458B800F1020008F1
:1058BC0010000000010000000090D0030090D00305
:0458CC00EC010024C7
:04000005080055B5E5
:00000001FF
